:080FF8000080070000E0070083
:020000040007F3
:10800000800C002075D70700178B0700678C0700CE
:10801000CF8C0700439407009B95070000000000E9
:10802000000000000000000000000000FB960700B8
:108030008F99070000000000FF9907004FA7070075
:108040000BBD070087D5070005B607006FD60700F0
:1080500069B50700EDD607002FD707003BD707000B
:10806000B1D70700B3D70700B5D70700B7D70700C8
:10807000B9D70700BBD70700BDD70700BFD7070098
:10808000F1C40700C1D70700C3D70700C5D7070051
:10809000C7D70700C9D70700CBD70700CDD7070040
:1080A000CFD70700D1D70700D3D70700D5D7070010
:1080B000D7D70700D9D70700000000000000000054
:1080C000DBD70700DDD70700DFD70700E1D70700C0
:1080D0001FC20700E3D70700E5D707000000000034
:1080E0000000000000000000000000000000000090
:1080F0000000000000000000000000000000000080
:10810000000000000000000000000000000000006F
:10811000000000000000000000000000000000005F
:10812000000000000000000000000000000000004F
:10813000000000000000000000000000000000003F
:10814000000000000000000000000000000000002F
:10815000000000000000000000000000000000001F
:10816000000000000000000000000000000000000F
:1081700000000000000000000000000000000000FF
:1081800000000000000000000000000000000000EF
:1081900000000000000000000000000000000000DF
:1081A00000000000000000000000000000000000CF
:1081B00000000000000000000000000000000000BF
:1081C00000000000000000000000000000000000AF
:1081D000000000000000000000000000000000009F
:1081E000000000000000000000000000000000008F
:1081F000000000000000000000000000000000007F
:1082000010B543689C18446041B103E013F8010BBA
:1082100001F8010B1046421E0028F7D1012010BDC5
:1082200030B585B00446154689B920681A4A90428F
:108230000DD000E0103D112D05D3102200F093F970
:108240000028F7D111E02A4600F08DF90DE0A06872
:10825000A84238BF002008D323682A462046984702
:1082600018B1A068401BA060012005B030BD10B55A
:108270000446A06840B1236801222046984718B1FF
:10828000A068401EA060012010BD40B5064602480F
:10829000002386E80F0040BD01820700F8B50D46B7
:1082A00004466946FFF7E3FF90B19DF80000000621
:1082B00004D49DF800702F600120F2BD9DF80000ED
:1082C000072600F07F0769462046FFF7D0FF08B970
:1082D0000020F2BD9DF8000000F07F00B040074391
:1082E0009DF80000F61D0006E5D5202EEBD3EFE744
:1082F0002DE9F04182B080460E460027002400257B
:1083000069464046FFF7B3FF08B9002014E09DF826
:10831000000000F07F0000213A4600F0EBFB044330
:108320009DF800000D43FF1D000602D5402FE7D346
:10833000EBE7C6E900450120BDE8F681F8B5074640
:108340001C460D4600201646207028703060694695
:108350003846FFF7A3FF10B9B86820B901E00098CC
:1083600018B9012020700020F2BDC00830600098CC
:1083700000F0070028700120F2BD1CB5044631B1A1
:1083800001290FD002290FD0052914D018E00122AD
:1083900001A900F0E9F8A0B19DF804000006F6D4A8
:1083A000012016BD082207E000F04DFB48B1009AFD
:1083B0000021204601E004220021FFF731FF16BD15
:1083C000002016BD70B582B00D46044600F03BFBA0
:1083D00078B194E80F002E4686E80F0000998A4293
:1083E00001D2002076BDA960A0680099401AA06063
:1083F000012076BD4968416070472DE9FF41804604
:108400001546084669680FF2C8638A78960006F038
:108410003C069E5912F0300309D0102B04D0202BBB
:1084200007D0302B3AD04EE06A69012010702A69DB
:1084300046E0022826D102F00F00052822DA6C69F6
:1084400069464046FFF7BEFF012718B93CE0208887
:10845000401C2080029868B1696820884B89984246
:1084600008D20B892A69584302446846B04700285D
:10847000EDD100276946404649684160029810BB2B
:10848000384621E068692A6903880D894F895D4370
:10849000BB422A4417D25B1C038011E06B69088839
:1084A000188002F00F00072808D10989286900F018
:1084B00033FB68682969C06800F0FCF82A696968BC
:1084C0004046B04700E0002004B0BDE8F0812DE94F
:1084D000F041154688B02E690446306818B9204628
:1084E000FFF74BFF37E002290ED169462046FFF720
:1084F00069FFC0B100F032F8A8B102980028F9D1A4
:1085000000F097F9012026E00DF1100869B101296A
:1085100003D0052907D1042700E008273A4604A91B
:1085200000F022F880B9002015E000277F1C0B2FF7
:10853000F9D2012241462046FFF772FE0028F2D010
:1085400018F8010B0006F1D43A4604A96846FFF773
:108550009CFE00F003F808B0BDE8F081696833685C
:10856000321D684618476946204659E653689B788D
:1085700013F0C00302D0402B01D001E03DE7A6E795
:108580000020704770B50D460446286886686A6802
:108590003146204600F0C3FA6868206105F10C00FE
:1085A0006061B07800F0C000802804BF281D206101
:1085B00070BD2DE9F04186B004461869A7680668C9
:1085C0000D46904600E0B66806B3A06887421DD10C
:1085D0003068D0F800C0BCF1000F05D043462A46F1
:1085E00031462046E0470EE080680088A842EAD184
:1085F00031466846FFF7C6FF012030736A464146A0
:108600002046FFF7B3FF0028DDD100E0012006B0CF
:10861000BDE8F08110B586B041688A7802F00F039A
:10862000082B0ED100690468002C41D00020207373
:1086300021466846FFF7A6FF6846FFF7EBFFA468F0
:10864000F2E712F0C00323D102F03003102B0ED159
:10865000436900221A708A78CB68006902F00F0221
:10866000072A0BD10146184600F024F820E0202B01
:108670001BD002F03002302AEDD116E0098923B177
:108680000A46194600F0B4FA12E000F045FA0FE08D
:1086900002F0C00180290BD103690021196002F0AA
:1086A0003001202918BF302902D140690021018002
:1086B00006B010BD00B50A4687B00146684600F016
:1086C0002EFA38B16846FFF7A5FF684600F039FA80
:1086D0000028F7D107B000BD2DE9F0418AB0064669
:1086E00008A80023C0E9003302A800F018FA002708
:1086F0004FF0FF340DF12008B06858B10DF10103BF
:1087000001AA69463046FFF719FEB8B99DF8010085
:10871000002879D003988778049E02A800F011FA07
:108720000028F7D13020074203D10398008800B118
:10873000761C002E6AD0002071095AE0019902A827
:1087400000F03FFA40BB0198B8421FD3039F039843
:10875000817801F00F01082901D1078806E002A8FD
:1087600000F0EFF90398B842F1D127460198B842DA
:108770000CD3B5689DF80020014602AB3046FFF7E8
:1087800018FF002840D0B0688542B5D19DF8001090
:108790003046FFF7F2FD23E003988078302108424D
:1087A0000DD1049840280AD2410958F8212001230C
:1087B00000F01F0003FA00F0104348F82100D6F83B
:1087C0000CC0BCF1000F05D09DF80020019902AB50
:1087D0003046E0479DF8001002AA3046FFF7C6FE7B
:1087E000002889D110E058F8202012F1010F0BD198
:1087F000401C8842F7D358F8210006F01F01C1F150
:108800002001CC40A04201D0002000E001200AB0AD
:10881000BDE8F08170B504460D461646314628463F
:10882000FFF748FF324629462046BDE8704053E72F
:10883000054669462046DDE51CB50C466946FFF74E
:1088400057FD70B1DDE900235208DDE9000142EA7D
:10885000C3725B08C00744BFD243DB43C4E90023B3
:10886000012016BD10B582B00C4604226946FFF700
:10887000D7FC78B19DF800009DF8011040EA012076
:108880009DF8021040EA01409DF8031040EA0160A3
:108890002060012016BD1CB50C4608226946FFF772
:1088A000BFFCF0B19DF800209DF801009DF8043058
:1088B00042EA00229DF8020042EA00429DF80300CD
:1088C00042EA00629DF8050043EA00239DF8060095
:1088D00043EA00439DF8070053EA0061C4E9002120
:1088E000012016BD30B583B000F052F818B32A89C4
:1088F000DDE90001082A08D1C4E90001D4E9002318
:108900008B4215D1824215D012E0C117042A03D13F
:1089100020600246D317F3E7022A03D12080B4F97E
:108920000020F7E7012A03D1207094F90020F1E735
:1089300000203EBD01203EBD30B583B000F028F8D8
:1089400028B3288908280AD1DDE90001C4E900011B
:10895000DDE90023994217D1904217D014E0042892
:1089600004D1DDE9000120600021F1E7022804D1F3
:10897000DDE9000120802088F6E7012804D1DDE947
:10898000000120702078EFE700203EBD01203EBDB1
:108990000D4614466946ABE430B583B00D46144627
:1089A0006946FFF749FF38B3288908280AD1DDE96D
:1089B0000001C4E90001DDE90023994219D1904288
:1089C00019D016E0042804D1DDE900012060C117A8
:1089D000F1E7022805D1DDE900012080B4F90000AB
:1089E000F5E7012805D1DDE90001207094F90000C8
:1089F000EDE700203EBD01203EBD114632E71146A5
:108A000049E770B582B00D460446164600F01BF8E3
:108A1000C0B10098B0F5803F0BD20099801C88420D
:108A200007D3A97801F0C001802902D029898142A9
:108A300001D2002076BD00983080B11C009A2046FB
:108A4000FFF7EEFB76BD694628E470B582B00E46AE
:108A500004461546FFF7F7FFB0B100980099401C97
:108A6000884207D3B17801F0C001802902D0318952
:108A7000814201D2002076BD009A29462046FFF7A8
:108A8000CFFB009A0021A95476BDF0B50D4685B004
:108A9000EF6800F018F800281ABFE86800280020E6
:108AA0000FD0A87800F030002028324639466846BA
:108AB00002D1FFF7AFFE01E0FFF70EFEFFF7B8FEB1
:108AC000284605B0F0BD0446164669467AE4000023
:108AD000E58807003989070099890700FB890700A5
:108AE000FF890700038A07004B8A07008B8A07006B
:108AF00000000000D2B2203A22BF00FA02F10020AA
:108B000070475242D041D2F1200291404140D040C2
:108B1000904041407047FEE7002200F0A9B8016094
:108B20004160C2600021816041688B881A44026103
:108B3000B1F906301A444261088800B10120C0B280
:108B4000704770B5426811460B883BB110324260E5
:108B500013882BB9C2680168FFF7E1FF002070BDE0
:108B60008C780B89254605F03006302E02BF9678AA
:108B700006F03006302E06D18D8804696D422C44F3
:108B8000002304610BE004F0F004202C02D14C8996
:108B9000634304E005F0C004802C08BF04238978F7
:108BA0003024214202D18168491C81600169194445
:108BB000938819440161B2F90620114441610120F2
:108BC00070BD70B504460D46666860680188A942AC
:108BD00006D1807800F00F00082801D0012070BD78
:108BE0002046FFF7AEFF6068B042EED1002070BDB6
:108BF00062B38B0708D0521E11F8013B00F8013B0D
:108C000000F024808B07F6D1830740F0208000BF5E
:108C1000103A07D330B4B1E83810103AA0E8381051
:108C2000F9D230BC530724BFB1E80810A0E80810FF
:108C300044BF51F8043B40F8043BD20724BF31F84D
:108C4000022B20F8022B44BF0B7803707047083AC0
:108C500007D3B1E80810083A40F8043B40F804CBC9
:108C6000F7D25307E4E7FEE762F30F2262F31F42F5
:108C7000401810F0030308D0C91A1FD3DB0748BF00
:108C800000F8012D28BF20F8022D130030B414463F
:108C90001546103928BF20E93C00FAD8490728BFFB
:108CA00020E90C0048BF40F8042D890028BF20F8B7
:108CB000022D48BF00F8012D30BC7047C91818BFFD
:108CC00000F8012DCB0728BF00F8012D7047FEE703
:108CD0005968DFF82C27C968914215D1DFF824279D
:108CE000536941688068002B04BF9369002B02D050
:108CF000002008E0491C0B78401E1B06FAD4906146
:108D0000491C51610120507470477FB5DFF8F806A7
:108D1000DFF8F046826B00F15C016846FFF7B5FAB8
:108D200068460FC8254685E80F00DFF8E006DFF843
:108D3000E056E0604FF44771002060746061A0610C
:108D4000284600F07BFB2A46DFF8C8162046FFF7CE
:108D500061FD4FF4B6712944667C0A782B78304067
:108D600003EA020686F0010630421DD0002A1CBF2D
:108D7000887900281AD04FF4BA700544A269616955
:108D80006846FFF782FA68460FC8264686E80F0055
:108D90004FF4B271284600F051FB2A46DFF8601606
:108DA0002046FFF737FD38B9002007E0002B1CBF35
:108DB000A8790028F8D00835E561012004B070BD1D
:108DC00010B5DFF85446207890B080B900F03AFB37
:108DD0002022DFF84816684600F06AFB40236A4606
:108DE000211DDFF83C0600F09CFB0120207010B034
:108DF00010BD80B5DFF81006806B08B1FFF785FF66
:108E0000DFF80016087401BD10B5DFF8FC45FF223D
:108E10004FF4007104F15C0000F0A2FB202104F18A
:108E2000380000F00BFB0020206310BD38B504466D
:108E300001250CB903250DE0B4F5007F88BF04259A
:108E400008D8DFF8C01500200874FFF7DDFFDFF851
:108E5000B8058463284632BDF8B5DFF8AC75054621
:108E60000E46F86BB96B01248219914238BF032476
:108E70000FD33844324629465C30FFF7B9FEF86B11
:108E80003018F86307F140023146284600F086FBAF
:108E900038642046F2BDDFF86C05007C70472DE990
:108EA000F041A2B00746202002900C461546984695
:108EB00000F00EF90FF2805000680390FFF780FF7A
:108EC0000CB913202FE00FB116202CE0DFF8487505
:108ED000DFF8501502A807F18C0601900096424673
:108EE000289B04A800F0C4FB00280CBF402D0A20DA
:108EF00019D14022214607F14C00FFF779FE2021CD
:108F000007F14C0000F0E0FA4020019007F14C001E
:108F100000903246029B391D03A800F0BDFB0028DB
:108F200014BF0520012022B0BDE8F08170B500F12A
:108F300055040F222578002358302E0018BF042D29
:108F400007D1067B2EB103690BB10B6001221046DD
:108F500070BDEE0702D5647804B10368AC07F3D5A1
:108F60000479002CF0D08068DFF8BC44C4F5FC2400
:108F7000844228BFC318E7D20422E8E7018A19B166
:108F8000406910B1012000E00020C0B2704770B508
:108F90000C461546FFF7F2FF03460022002120464B
:108FA00000F0F1FB012608B1042602E000F0D9FB35
:108FB0002860304670BD38B5DFF8543493F86C51F2
:108FC0001C1D00200021002255B14FF4B8701C1860
:108FD0004FF436701A184FF43771107852881944CC
:108FE000DFF820349D695B690095FFF758FF012881
:108FF00004D1201DBDE8324000F035BC32BDF8B5CB
:109000000446DFF804040D46C16B806B814218BF33
:1090100008262DD1DFF8EC73387C40B100F0A1FBBD
:1090200020602946F869FFF781FF064620E0FFF738
:109030006CFEE0B1FFF7BFFF064600202060012E66
:10904000286004D1F8692946FFF770FF0646012E13
:1090500005D12968F8692246FFF799FF0646012ED7
:1090600002D10120387403E0FFF7CEFE00E00526B0
:109070003046F2BD2DE9F041AAB080462020029092
:109080000C4615461F4600F023F8FFF799FE01260F
:1090900037B12022414622A800F000FA0DF18808DD
:1090A00002A8DFF88873DFF87C13019000972B4645
:1090B000224604A800F0DCFA28B9202241463846AE
:1090C00000F034FC00B1002630462AB0BDE8F08143
:1090D00004A8782100F0B2B901237230CAE710B5B4
:1090E00000F500514FF4405351F8042F5968D04C0B
:1090F000A1420BD10021A2421ED119781529A3BF8C
:109100005969CC4AB1FBF2F1002102E0A24212D12E
:109110000FE000F500521278152A07DB00F5005029
:109120001430C44A0068B0FBF2F000E00020814235
:1091300001D0012100E00021084610BD0000000020
:10914000F0B5A3B00446202002900E4617461D46F7
:10915000FFF7BEFF41212046FFF7DEFC44207843A5
:109160003118B6F8940001F19602874234BF1078A6
:109170002998207028462378289E032B1CD8DFE8E6
:1091800003F008020F1D0022314600F007FAC4F870
:10919000010032462946204600F0B0F823B0F0BD69
:1091A00002A901910246611C009133469D4904A821
:1091B00000F05EFA0028ECD00020EFE752889A31E8
:1091C000601CFFF715FDE4E730B593B004460120BD
:1091D0001D46019000920B460022214602A8FFF78F
:1091E000AFFFA0B195B1884D412202A905F2A1209F
:1091F000FFF7FEFC0120E862002028622046FFF70E
:10920000BDFE08B900F082FA6068A860012013B0C2
:1092100030BD2DE9F043A5B004460D469046994671
:1092200013A8442100F00AF902A8442100F006F92D
:109230002C9F28004E4625D009F50051091D7C4A77
:109240000968A06D91422AD109F50051083100F555
:10925000F852401E0968FF32C0F30B00101A814219
:109260001DD34846FFF73BFF012001904B46A06D00
:1092700000900022214613A8FFF762FF78B1A06D8D
:1092800086193F1A5FEA08000BD000200190009772
:1092900033462A46214602A8FFF752FF08B90020AC
:1092A00029E02D9830B3584EBDB14846FFF717FF5F
:1092B00018B106F1180000F021FA4FF4187041229D
:1092C00013A93018FFF7A4FC5FEA080014BFAC2014
:1092D000A520F062A06D706301E0AA20F062B8F1F1
:1092E000000F07D0412202A906F2E220FFF780FC1E
:1092F0006068F060012025B0BDE8F08338B50C4609
:1093000011460278032A1ED8DFE802F00A020C1484
:10931000D0F801500022204600F040F9A84212D1B6
:10932000012032BD0A46214601B0BDE8304000238D
:10933000401C9FE600912346411C40220020FFF77D
:10934000AEFD012800D0002032BD2DE9FC4781464A
:109350002C48C4690D4616462A4649462046012730
:10936000FFF7BAFEB84608B917270BE094F8550086
:10937000010009D133462A4649462046FFF724FF1B
:10938000D0B90527B84617E000F0010A400800F000
:109390000102019600954B4651462046FFF739FFE2
:1093A00050B9052716EA0A0FB84605D000F0E7F9CC
:1093B000814508BF00F0AAF9134C46B9B8F1010F76
:1093C00002D10120606115E0FFF71EFD12E0B8F147
:1093D000010F07D100222946484600F0DFF8A062BD
:1093E000656203E004F1240000F088F9FFF70CFD4A
:1093F000C4F848903846BDE8F6870122A5E700008A
:1094000078CB07009C81002044750020D18C070098
:10941000447C002098CC07006480002088D5070099
:1094200084D7070048D7070000800700BC810020D0
:10943000DBE5B15140420F0000000000002200F0C7
:1094400093B8FEE7F8B50B480B490C4D0C4F401A8A
:10945000C40801202870002600E0761CA64205D230
:1094600057F8360080470028F7D0F2BD0220287058
:109470000020F2BD00000000000000005382002028
:10948000000000000144491E05E002780B7800F856
:10949000013B01F801298142F7D270470244521E74
:1094A00003E011F8013B02F801398242F9D270471A
:1094B00070B504460D461646FFF7F0FF3246A9196F
:1094C000A019BDE87040E9E738B504460D46FFF73E
:1094D000D9FF29466019BDE83440D3E700B90FE051
:1094E00001B910E000220A6048600020704700B90E
:1094F00006E00068884214BF48F2405000207047E0
:1095000048F21050704748F21350704700B9F7E71F
:10951000914214BF48F211500020704748F20350A6
:10952000F2BDF8B500F012F878B9A27939463046A4
:10953000FFF7ECFF48B9094800B9EFE73146284684
:1095400000F029FA08B904492960F2BD04460D4625
:1095500016461F46C2E700007052464D9799070015
:1095600062F30F2262F31F4200B500BF130096465C
:109570009446103928BFA0E80C50FAD85FEA417C25
:1095800028BF0CC048BF40F8042BC90728BF20F8EB
:10959000022B48BF00F8012B00BDFEE730B5002AC2
:1095A0000EBF4FF0FF321268D243002304E06D1E5D
:1095B00084EA520205D15B1C8B4207D2C45C624034
:1095C0000825D4074CBF024C0024F0E7D04330BD3F
:1095D0002083B8ED10B948F20150704700680C497B
:1095E000884214BF48F202500020704710B50400B2
:1095F00002D148F2015010BD11B948F2105010BD0F
:1096000061600968884710B901482060002010BDDA
:109610006E52464870B500F027F860B915B948F2A7
:10962000105070BD3EB163685B68324629462046E3
:10963000BDE87040184770BD70B500F015F890B9DE
:1096400015B948F2135070BD63683068D968884214
:1096500002D248F2145070BD9B683246294620461B
:10966000BDE87040184770BD04460D461646B1E788
:1096700070B5044615461E46FFF7B8FF58B9324686
:1096800029462046FFF7C6FF28B9059A04992046C7
:10969000BDE87040D0E770BD2DE9F04104460D46AD
:1096A00082B0164698460C492846FFF720FF88B935
:1096B00000F01CF8FFF72AFF60B916B948F2105005
:1096C00008E0064810B948F2035003E000F008F83B
:1096D00000F06AF9BDE8F6817052464DA99907007D
:1096E00000974346324629462046704768684079CD
:1096F000089F0999420038467047FEE70021002282
:1097000000230EC0454900200863704710B543F29E
:10971000040443492068884213D1002304220FF235
:109720000811204600F077F958B93C48016A012930
:1097300004BF0021016262688169A2F5805251185C
:10974000816110BD43F20400354A0168914207D19E
:10975000406800F6FF71401EC0F30B00081A704706
:109760000EE080B5FFF7EEFF2C498969081800F676
:10977000FF71401EC0F30B00081A02BDE2E700BFF4
:109780004FF4805070472DE9F047044688469146D3
:109790009A460025214E002700211DB1022D18D028
:1097A00009D319E0FFF7DDFF5FEA09010ED0316A46
:1097B00001290CD00AE0FFF7C5FF5FEA0A0101BFEB
:1097C00043F204010968164A914200D10127394643
:1097D00003E04FF4805000E00020124AA2F540520E
:1097E000101AA0429241D20F48EA0200084205D066
:1097F000022DBEBF6D1CEDB2032DCCDB0AB10420DF
:1098000009E0022DA8BFFFF781FF1DB106F1180086
:10981000FFF774FF0020BDE8F087000044750020CA
:10982000DBE5B1510080070000000000F0B5002327
:10983000002443F2040500E0641C8C4211DA2E6817
:10984000384FBE4202BF50F824602F89BE4207D075
:109850001600F1D050F824604FF6FE77BE42EBD1EF
:1098600001231846F0BD70B5054605F154060124E4
:109870003078002853D07078010018BF012803D039
:10988000022818BF03284AD1B17E032902D1297AC0
:1098900011B944E0142443E0E968342918BF1124C5
:1098A0003ED143F204021F4B1268298A9A4222D108
:1098B0000A0028D06A6922B1042814BF00220122BC
:1098C00004E0020008D1022908DB0022C9B205F138
:1098D0001400FFF7ABFF14E0012814D0707829784A
:1098E000D9B1020018BF01280F490ED0C8686968B5
:1098F000884210D214E000291CBF6869002802D1F8
:1099000028780028EAD112240AE088686968884229
:1099100006D3814204D0102402E0012800D00F2495
:10992000204670BDDBE5B1514475002003000020E6
:1099300013F0030F09D0521E22BF13F8010B11F8C8
:1099400001CBB0EB0C00F3D07047121F22BF53F8CD
:10995000040B51F804CB6045F7D0121D0AD200BAAF
:109960009CFA8CFCB0EB0C0038BF6FF0000088BF95
:1099700001207047521E22BF13F8010B11F801CBD2
:10998000B0EB0C00F6D0521C08BF10467047FEE743
:1099900040688068004780B5426852790830FFE728
:1099A000FFF786FD002002BD2DE9F0410C469AB07C
:1099B00000F020F8666807467079804588BF8046C9
:1099C0004246294611A8FFF769FD7279209901A83E
:1099D000FFF76EFD009701AB424611A904F10800A4
:1099E00000F02CF800280CBF48F2425000201AB0BA
:1099F000BDE8F081154698462046FFF7C9BFFEE74F
:109A0000416900291CBFC068084770470022094906
:109A1000094800F085B980B5009313460A4601460F
:109A2000054800F082F902BD13460A460146024885
:109A300000F097B9F0D607006C0400202DE9F04F34
:109A4000EDB01F46DDF8D8810590B8F9026098F9AD
:109A5000004020231F3696FBF3F676B206F1FF395D
:109A600024AB002543F829506CAB03EB89034CA8C9
:109A70008A469346394698F9012043F8805C43F8BA
:109A8000605C00F0C0F998F9012054A8B91800F002
:109A9000BAF921464CA800F0C0F90746002840F06A
:109AA0003781214654A800F0B8F90390002840F00F
:109AB000318108F1240332464CA91846029300F084
:109AC000BBF9012840F02881324654A9029800F0E1
:109AD000B3F90128069040F01F811CAD0CAF33464E
:109AE000029A54A9284600F0BBF9039B47F8293095
:109AF0005A4651463846434600F039FA3946384608
:109B0000029B00962A4600F075FA0DF5B879029B83
:109B100000962A464CA914A800F06CFA4846224642
:109B2000059900F00FFBA30009EB030A0793059BBF
:109B3000A100591808F1440B5046224600F002FBE0
:109B40005946224634A800F0FDFAA3000BEB0301AE
:109B500022463CA800F0F6FA08F10403494634AA6C
:109B600028460094049300F0FAFA53464A463CA96A
:109B700034A8CDF8008000F004FB2346049A29465F
:109B8000284600F06DF92A4651464846434600F003
:109B90005DFB039B08933146059B0A933846CDF83D
:109BA00024B0CDF82C9000F070FB3146814614A80B
:109BB00000F06BFB4845B8BF48461FFA80F909F131
:109BC000FF3B0FFA8BFB5946384600F07CFB5946A9
:109BD000071C14A818BF012700F075FB002814BF4C
:109BE000022300231F430DF1200A22465AF8277052
:109BF00024A8394600F0A6FA0DF1B00BA300F9181D
:109C00002246584600F09EFA2146284600F065FBA1
:109C1000A9F10209069B2B600FFA89F90DF1900A50
:109C2000B9F1000F45DB43462A46D8F8A4705946DF
:109C30005046B84749460CA800F045FB4946071C6A
:109C400014A818BF012700F03EFB002814BF022310
:109C500000231F4308AB53F827702FB32246394621
:109C600034A800F06FFA079B2246F9183CA800F0D0
:109C700069FA43462A463CA934A800F0E7FA049B57
:109C8000009434AA514644A800F069FA5B46524653
:109C90003CA934A8CDF8008000F073FA434644AAEA
:109CA0002946284600F025FB09F1FF390FFA89F90A
:109CB000B6E72346049A2946284600F0D1F84346E1
:109CC0002A465946504600F0C1FA3246514602989B
:109CD00000F0B2F8012805D03346029A51465046AA
:109CE00000F01EFB013C64B20020002C0CDB23B210
:109CF0006CAA02EB83015AF8232051F8803C013C06
:109D00005340184364B2F0E7B0FA80F0400904E031
:109D1000284602E0384600E003986DB0BDE8F08FB9
:109D200001601146026812681047F8B500F013F898
:109D3000304600F062F800F00AF8069800903B46C2
:109D400020462468E46832462946A047F2BD3A46D8
:109D50002946204644E004460D4616461F4628463E
:109D60004BE0F8B5044616466068006800FB06F252
:109D70000D461F46204600F033F82046246824692B
:109D80003B4632462946A047F2BD10B500281CBF0D
:109D90000168002919D1002400E0641C0D480E4917
:109DA000401A1421B0FBF1F084420CD261430B48FD
:109DB0000A4A084451580029EFD0C9698847002849
:109DC000EBD0012010BD002010BDC969BDE81040D6
:109DD00008470000800400206C0400206C04002070
:109DE000C368994207D300695118491E88428041CF
:109DF000C043C00F70470020704700F00300401EB2
:109E00008041C00F70478B1802448B4204D013F876
:109E1000010D02F8010DF8E7704710B500231A464E
:109E20005CB28C4204DA50F8244001332243F7E755
:109E3000B2FA82F0400910BD10B5013A52B2002AC0
:109E40000ADB13B250F8234051F823309C4205D866
:109E5000F3D24FF0FF3010BD002010BD012010BD27
:109E6000F0B50F46A1B006461946384615461C46C1
:109E7000FFF7D3FF20B12146304600F02EFA74E000
:109E800022463946684600F05DF92246294608A870
:109E900000F058F9214610A800F01FFA01232146CE
:109EA00018A8109300F019FA224608A96846FFF78F
:109EB000C3FF002854D0009BDA0704D4214668462B
:109EC00000F05EFA26E0089BDB0704D4214608A8D0
:109ED00000F056FA3EE0002823461FDD08AA694636
:109EE000684600F01DFA2146684600F049FA22460D
:109EF00018A910A8FFF7A0FF002805DA10A923462B
:109F00002A46084600F04CFA10A9234618AA08462B
:109F100000F006FA2246294610A81EE008A96A4663
:109F2000084600F0FDF9214608A800F029FA22466B
:109F300010A918A8FFF780FF002805DA18A9234602
:109F40002A46084600F02CFA18A9234610AA08460B
:109F500000F0E6F92246294618A800F04FFAA3E7D8
:109F6000224610A9304600F0EDF821B0F0BD2DE9F1
:109F7000F047B3F9025089460824E91D1F3591FBCB
:109F8000F4F42021944295FBF1F54FFA85F828BFAF
:109F900014461F464146064600F09FF922464946B0
:109FA000FFF731FFB7F90230E4009C4220D9E41AF0
:109FB00006EB85010023C4F120008E4208D251F83F
:109FC000042D22FA04F52B430B6002FA00F3F4E7A8
:109FD0002437424631463846FFF72EFF012807D086
:109FE00043463A4631463046BDE8F04700F098B95E
:109FF000BDE8F0872DE9F04FB5B004AD9DF9F8400C
:10A000001F4680462346284600F014FA24AB21461A
:10A0100038460293039500F038F9494BC0EB8410A1
:10A0200005B22B40002BBEBF03F1FF3363F01F03CB
:10A030000133202695FBF6F676B20FFA83F914A8C1
:10A04000314600F04AF9B9F1000F30B214DD14AB1B
:10A05000002203EB8000C9F120061346A34212D26E
:10A0600057F8231001FA09FE4EEA020240F82320B5
:10A0700021FA06F20133F1E714AB2246394603EB2D
:10A08000800000F05FF827B27B00019314AB03EB74
:10A09000870704F1FF3934AB012603EB8909002D52
:10A0A00042DB34AB0022C6F10100964603EB860A80
:10A0B00003EB8000019B51B299421BDA0FFA81FC3D
:10A0C0005AF8C83C53F82CB034AB03EB810151F87B
:10A0D000803CC3EB0B03CEEB03039B4504D034BFA2
:10A0E0004FF0010E4FF0000E50F8C81C013241F83D
:10A0F0002C30DFE7CEEB06035E42214614A85E411A
:10A1000000F03EF934AB03EB8403214653F8802C76
:10A1100059F8803C384643EAC273013D49F8803C17
:10A120002DB200F02DF9BAE734AB03EB86062246D8
:10A1300056F8C81C404600F005F835B0BDE8F08F71
:10A140001F00008030B5002463B2934206DA1BB2D0
:10A15000013451F8235040F82350F5E730BD70B575
:10A160009DF910401E462346054600F0D9F838B147
:10A170002346324629462846BDE8704000F010B913
:10A1800070BD2DE9F0438BB01446129D15F9046B98
:10A1900000961F46804689462B460246214602A865
:10A1A000FFF7DDFF02A9129A084600F0CCFA129BD5
:10A1B00002AA4146404600F09CF8129B02AA2146A2
:10A1C000204600F096F82B464A4639463846009617
:10A1D000FFF7C5FF129A394602A800F0B4FA02A9A7
:10A1E0002B46424608460096FFF7B9FF02A92B46C8
:10A1F000224608460096FFF7B2FF2B46424621460C
:10A2000020460096FFF7ABFF129B22464946484680
:10A2100000F06FF82B4602AA414620460096FFF751
:10A220009EFF129B22463946384600F062F82B46C4
:10A230004A46394638460096FFF791FF324602A952
:10A240002046FFF77FFF0BB0BDE8F083F0B5154661
:10A2500089B01C4607460E461A462946684600F055
:10A2600072FA23466A463946384600F042F82346D9
:10A270002A466946684600F03CF823466A4631465D
:10A28000304600F036F809B0F0BD013949B2002976
:10A2900009DA013149B2A1B101F18043013B50F823
:10A2A0002330002004E050F82130002BEDD0F0E7FF
:10A2B00013B15B080130FBE7013900EB411108B233
:10A2C0007047084670474A11012350F8220001F0F8
:10A2D0001F0103FA01F108407047002210B514462F
:10A2E00053B28B4204DA1BB2013240F82340F7E745
:10A2F00010BD30B51C4691B0054693F90030684654
:10A3000000F098F8D4F8AC3069462846984711B068
:10A3100030BD000000000000000000000000000050
:10A32000C3F10803DB0070B50133002403A500BFAF
:10A330005B1920C940CAAD1B20C0184720C940CABC
:10A34000B54120C020C940CAB54120C020C940CA7B
:10A35000B54120C020C940CAB54120C020C940CA6B
:10A36000B54120C020C940CAB54120C020C940CA5B
:10A37000B54120C06441B4FA84F0400970BD00BF0B
:10A3800000EB81010023884206D251F8042D43EAF4
:10A3900052030B60D307F6E770470000000000008F
:10A3A000C3F10803DB0070B50133002403A500BF2F
:10A3B0005B1920C940CAAD1920C0184720C940CA3E
:10A3C000754120C020C940CA754120C020C940CA7B
:10A3D000754120C020C940CA754120C020C940CA6B
:10A3E000754120C020C940CA754120C020C940CA5B
:10A3F000754120C06441204670BD00BF70B5036840
:10A4000013F001050646144605D013460A460146D8
:10A41000FFF7C6FF054621463046FFF7B1FF45B1BD
:10A4200004F18042013A56F8223043F0004346F8E6
:10A43000223070BD2DE9F04F08B4F8CA04B451F8C9
:10A44000042BA3FB028940F8048B4FF0000AE4FBC5
:10A45000629A4FF0000BE5FB62AB4FF0000CE6FB9D
:10A4600062BC4FF0000EE7FB62CE51F8042B4FF0B8
:10A470000008E3FB628940F8048BE4FB629AE5FB89
:10A4800062ABE6FB62BCE7FB62CE51F8042B4FF0F7
:10A490000008E3FB628940F8048BE4FB629AE5FB69
:10A4A00062ABE6FB62BCE7FB62CE51F8042B4FF0D7
:10A4B0000008E3FB628940F8048BE4FB629AE5FB49
:10A4C00062ABE6FB62BCE7FB62CE51F8042B4FF0B7
:10A4D0000008E3FB628940F8048BE4FB629AE5FB29
:10A4E00062ABE6FB62BCE7FB62CE40F8049B40F83F
:10A4F00004AB40F804BB40F804CB40F804EB0CBCC0
:10A50000052B00F01E810C68A0F11400A1F11401CC
:10A51000A2F1140252F804EB4FF0000550F8046B5E
:10A52000E4FB6E5652F804EB50F8047BE4FB6E67D4
:10A5300052F804EB50F8048BE4FB6E7852F804EB0D
:10A5400050F8049BE4FB6E8952F804EB50F804AB1E
:10A55000E4FB6E9AA0F1140052F8044B51F804EB9E
:10A560004FF0000CE4FB6EC540F804CB51F804EB4F
:10A57000E4FB6E5640F8045B51F804EBE4FB6E67B5
:10A5800040F8046B51F804EBE4FB6E7840F8047B70
:10A5900051F804EBE4FB6E8940F8048B51F804EBAE
:10A5A000E4FB6E9AA0E80006062B00F0CA800C6857
:10A5B000A0F11800A1F11801A2F1180252F804EB61
:10A5C0004FF0000550F8046BE4FB6E5652F804EBB4
:10A5D00050F8047BE4FB6E6752F804EB50F8048BF0
:10A5E000E4FB6E7852F804EB50F8049BE4FB6E89B0
:10A5F00052F804EB50F804ABE4FB6E9A52F804EB0B
:10A6000050F804BBE4FB6EABA0F1180052F8044B09
:10A6100051F804EB4FF0000CE4FB6EC540F804CB9E
:10A6200051F804EBE4FB6E5640F8045B51F804EB80
:10A63000E4FB6E6740F8046B51F804EBE4FB6E78C2
:10A6400040F8047B51F804EBE4FB6E8940F8048B7E
:10A6500051F804EBE4FB6E9A40F8049B51F804EBCC
:10A66000E4FB6EABA0E8000C072B6AD008B40C68C2
:10A67000A0F11C00A1F11C01A2F11C0252F804EB94
:10A680004FF0000550F8046BE4FB6E5652F804EBF3
:10A6900050F8047BE4FB6E6752F804EB50F8048B2F
:10A6A000E4FB6E7852F804EB50F8049BE4FB6E89EF
:10A6B00052F804EB50F804ABE4FB6E9A52F804EB4A
:10A6C00050F804BBE4FB6EAB52F804EB50F804CB3B
:10A6D000E4FB6EBCA0F11C0052F8044B51F804EBF3
:10A6E0004FF00003E4FB6E3540F8043B51F804EBF7
:10A6F000E4FB6E5640F8045B51F804EBE4FB6E6734
:10A7000040F8046B51F804EBE4FB6E7840F8047BEE
:10A7100051F804EBE4FB6E8940F8048B51F804EB2C
:10A72000E4FB6E9A40F8049B51F804EBE4FB6EAB3B
:10A7300040F804AB51F804EBE4FB6EBCA0E8001851
:10A7400008BCBDE8F08F13460A46FFF7D2BDFEE70E
:10A75000DFF80414C968062008470B2803DB0B3810
:10A76000C0B200F023BA704770B50C464FF44051A8
:10A7700001224D68DFF8E4339D42DFF8E4532E6A8E
:10A7800008BF0222012E08BF521C01266670007C01
:10A79000060009D102202071E868A060DFF8C40338
:10A7A000E060C0F5FC2022E0012804BF4E689E4214
:10A7B0000CD10020207108781528ACBF4869002012
:10A7C000A0604FF48050E060886810E0D2B2904200
:10A7D00008D201202071A868A060FEF7CFFFE060DA
:10A7E000A86904E0FF2020710020A060E0602061E3
:10A7F00070BDDFF86C13CA6B4260096C81607047F2
:10A8000038B505460C462878DFF84C23012808D0D7
:10A81000032834D004281ED006282DD0082809D0BB
:10A8200031BDD168032088476869FEF7FFFAFFF75A
:10A8300094FF1FE0A98A2869FEF70EFBFFF78DFF42
:10A8400060702046FFF7D5FFE96808001BD0286933
:10A85000BDE83440084702F10801101DFEF7CFFBA8
:10A86000FFF77BFF012860700DD1002000F086FA11
:10A8700048B10A20607031BD4FF40070E06020469E
:10A88000BDE83240B5E731BD2DE9F04205460C4642
:10A89000FEF701FB08B9082009E0A98AB04E326D25
:10A8A000736D706C5218D21A904202D203206070FD
:10A8B00022E0A948326B406802EB0009286906F1E2
:10A8C0004802FEF76BFE0746EB68AA8A29694846EC
:10A8D000FFF7A1F820B12869E968BDE8F042084710
:10A8E000306BA98A40183063A98A306DB76440186C
:10A8F0003065A760306D6060BDE8F08210B5044639
:10A9000086B00020FFF741FA28B1974A1821204667
:10A9100000F062FA19E00FF26421914A126D00F022
:10A92000EEF88D4881688A420CD14068FEF765FDDB
:10A930008DF80100FFF711FF00F009F88B4800F0D7
:10A940001DFA02E0012000F002F806B010BD8DF8FB
:10A9500001006168A268684610472DE9F04104468D
:10A960000D4620787C4F7E4E01284FF0010808D01C
:10A97000032835D0042838D006284ED008282BD0FC
:10A9800052E0FEF788FAB0B3606918B301051FBF43
:10A99000716D4118BA6891421CD1B0F5805F88BFD3
:10A9A000042029D8726DB9688218914223D370644B
:10A9B0000022F06CB064706D306530636069336D97
:10A9C00000F6FF70010B78681818FFF72DF858B3E0
:10A9D000052011E003200FE02046FFF755FF23E09C
:10A9E000B06CA860306D68601EE0306D726D716C87
:10A9F000821A914202D00820687015E0002171642B
:10AA00004FF00008B16CF164706500212046FFF73B
:10AA100075FFF9680420884706E0B06CA860306DC7
:10AA200068604FF48050E8604046BDE8F081000067
:10AA300070B586B004460FF25C11474D00F05FF828
:10AA400020788DF80000012620780C2853D8DFE804
:10AA500000F0072A442A2A522A222A1E0A1926000E
:10AA60008DF804603AE04248016801914168029122
:10AA7000C168890204910069800203903D48006822
:10AA800005902BE069462046FFF76EFE26E0207C0D
:10AA90008DF8040022E0208AADF804001EE0E96889
:10AAA000072088471AE0062812BF0128206928706D
:10AAB0002878012807D002280AD169462046FFF7E6
:10AAC0004CFF064609E069462046FFF799FE04E080
:10AAD0000020287005208DF8010056B16168A26839
:10AAE000684690479DF80100012802D0E9680520DA
:10AAF000884706B070BD02208DF80100EEE7684679
:10AB000091EC060B80EC060B704791E7816809B960
:10AB100007207047184A182100F05EB938B50400C4
:10AB200001D1072032BD0020FEF770FF98B9FEF773
:10AB300060F9FEF7B0F9084D40B105F10801281D94
:10AB4000FEF75DFA012801D0032032BDEC60002041
:10AB500000F02CF8002032BD34000020DBE5B151BC
:10AB60004475002000800700FDA8070051A70700DA
:10AB700000010010100000100BAB070004000000E3
:10AB800000000000000000000000000000000000C5
:10AB900000000000000100000000000000000000B4
:10ABA00000000000000000000000000004490870E0
:10ABB0000B2070470249087800220A707047000095
:10ABC0005482002000225821001DFEF7E7BC10B57A
:10ABD0000446206810F1010F07D02046FFF7F2FF6E
:10ABE0002168884201D1012010BD002010BD4FF422
:10ABF00018730022C3211844FEF7D0BC38B5664D47
:10AC000004462868011D5422201DFDF7F1FF286825
:10AC100000F15C0104F15C00BDE8384040F2C7225D
:10AC2000FDF7E6BF2DE9F041FEF7F0FE00284ED11A
:10AC30004FF4FE284046584EFFF7C9FF37680546D7
:10AC40003846FFF7C4FF58B17868012806D0384667
:10AC5000FFF7CDFFD7F85C12884201D1012400E054
:10AC600000244E4F4FF460719DB30A46414638466A
:10AC7000FDF7CEFF14B13846FFF7C0FF7868012812
:10AC800021D14FF4AE703918402207F22330FDF77E
:10AC9000AFFF4FF4CE7039181C2207F26330FDF776
:10ACA000A7FF002087F860020422012087F8A10294
:10ACB00007F11C01002087F8E20207F2A220FDF74D
:10ACC00097FF02207860002000F058F860B1032060
:10ACD0000AE02CB10A4631683846FDF789FFCDE716
:10ACE0003846FEF7ABFBECE7BDE8F081F8B5164659
:10ACF00004460D461F464FF46072FEF717FE28B952
:10AD000030001CBF0020B0470020F2BD002201210E
:10AD10002046FEF789FE68B94FF46072294638462E
:10AD2000FDF766FF33464FF4607239462046FEF762
:10AD300072FE00B10320F2BD38B50446174D284617
:10AD4000FFF740FF28602846FFF751FFC5F85C0277
:10AD50002246294601B04FF460702B18BDE8304000
:10AD60004FF4FE20C2E710B502460B4C2068231DAD
:10AD7000BDE81040BAE74FF4FE21F4E738B50446C9
:10AD80000020FFF7D9FF050003D104492046FFF753
:10AD9000EAFF284632BD0000440000204475002030
:10ADA000394A9288904234BF401C0020C0B270479C
:10ADB00010B512F003030DD1334B9A604C1CE40420
:10ADC00002EB1442DA6000225A701A70588099809F
:10ADD000002010BD072010BD2DE9F0472A4E044683
:10ADE000708888428846154631D3002000F05BF811
:10ADF00096F800A07078FFF7D3FF4FF6FF79504523
:10AE00004F4604D077787078FFF7CAFF7070002043
:10AE100000F04AF84F4518D0B06840F8375000EBC2
:10AE2000C705002C18BF5FEA08000AD07388F068D5
:10AE30007B43424621461844FDF7DAFEA5F804801C
:10AE400001E00020A880002002E0042000E00920AA
:10AE5000BDE8F08738B50C4C0FE02278A368658810
:10AE600003EBC20055438188E06853F83220284440
:10AE700090472078FFF794FF207020786178814216
:10AE8000EBD131BD000000001882002072B60748E7
:10AE90000168491C0160704704480168491E01604F
:10AEA00000D162B67047F1E7F6E700004482002067
:10AEB0002DE9F04FC8B00A460023002408A915194F
:10AEC000241D6F782E783F0447EA0666AF78ED7848
:10AED00046EA0726354341F823505B1C102BEED37E
:10AEE000402B1AD208AA02EB8302403A956B5468B1
:10AEF0004FEAF54686EA754686EA9525566A12684F
:10AF000075194FEAB44686EAF41686EAD404641941
:10AF1000121941F823205B1CE2E7026D07924FF003
:10AF20000008436D0693846D0594C56D0495066E07
:10AF30000396476E0297D0F868E0CDF804E0F44637
:10AF4000D0F86CE0F2464FEAF62989EAB61989EAA8
:10AF50007669D14407EA060A2CEA060B8BEA0A0A4C
:10AF6000D1440FF2502A5AF828A0D14451F828A011
:10AF7000D1444FEA723A8AEAB20A8AEAB25ACDF862
:10AF800000A008F1010884EA030A0AEA020B04EAB5
:10AF9000030A8AEA0B0ADDF800B0D344E246BC4655
:10AFA000374609EB050625461C461346B8F1400F07
:10AFB0000BEB0902C7D30799511801650699591877
:10AFC000416505996118816504996918C1650399FE
:10AFD0007118016602997918416601996144816688
:10AFE0000AEB0E01C16648B0BDE8F08F08B90E202B
:10AFF0007047002101640022C0E91221084901655F
:10B0000008494165084981650849C16508490166E3
:10B0100008494166084981660849C16600207047B1
:10B0200067E6096A85AE67BB72F36E3C3AF54FA5D9
:10B030007F520E518C68059BABD9831F19CDE05B05
:10B04000F8B504000D46164601D016B10DB90E2014
:10B05000F2BD002714E0216CE85D6054206C401CB8
:10B06000402820640BD100F0A1F8D4E9120110F5BA
:10B07000007041F10001C4E91201002020647F1C2E
:10B08000B742E8D30020F2BDF8B504000D4618BF62
:10B09000002D164601D10E20F2BD04F13807B86824
:10B0A000421C382809D280212154382A14D2C2F1F6
:10B0B0003801A018FDF730FD0EE080212154402A10
:10B0C00004D2C2F14001A018FDF726FD00F06EF891
:10B0D00038212046FEF7B2F9D7E90401BA6810EB2F
:10B0E000C20051EB5271C7E90401F871D7E90401BC
:10B0F0000004000EB871D7E90401000C7871D7E99B
:10B100000401000E3871D7E90401F970D7E9040190
:10B11000080AB870D7E90401080C7870D7E904016F
:10B12000080E387000F042F8F6B100207B6B291849
:10B13000C200D3400B70401C3B6BD3400B71FB6AC9
:10B14000D3400B72BB6AD3400B737B6AD3400B7442
:10B150003B6AD3400B75FB69D3400B76BB69D34088
:10B1600004280B77E2D31FE00020C100BB69C1F1C6
:10B1700018012A18CB401370401CFB69CB40137197
:10B180003B6ACB4013727B6ACB401373BB6ACB40E4
:10B190001374FB6ACB4013753B6BCB4013767B6B10
:10B1A000CB4004281377E0D30020F2BD214620468F
:10B1B0007EE60000982F8A4291443771CFFBC0B5DC
:10B1C000A5DBB5E95BC25639F111F159A4823F9272
:10B1D000D55E1CAB98AA07D8015B8312BE853124CB
:10B1E000C37D0C55745DBE72FEB1DE80A706DC9B8C
:10B1F00074F19BC1C1699BE48647BEEFC69DC10F38
:10B20000CCA10C246F2CE92DAA84744ADCA9B05C73
:10B21000DA88F97652513E986DC631A8C82703B036
:10B22000C77F59BFF30BE0C64791A7D55163CA0644
:10B2300067292914850AB72738211B2EFC6D2C4D50
:10B24000130D385354730A65BB0A6A762EC9C2813E
:10B25000852C7292A1E8BFA24B661AA8708B4BC2D4
:10B26000A3516CC719E892D1240699D685350EF4FE
:10B2700070A06A1016C1A419086C371E4C774827B5
:10B28000B5BCB034B30C1C394AAAD84E4FCA9C5B2B
:10B29000F36F2E68EE828F746F63A5781478C8847C
:10B2A0000802C78CFAFFBE90EB6C50A4F7A3F9BE5E
:10B2B000F27871C681B00022425040580090009848
:10B2C00001B07047405800B10120C0B2704710B5BE
:10B2D0004FF4A16401512044826043600299C1602F
:10B2E00010BD00F2445001E000F2345001604260B1
:10B2F000704741EA420141EA8302009942EA012291
:10B30000019942EA0141B84A42F8201070472DE9FC
:10B31000F04F044683B0904620790D461C22B34975
:10B32000D4F8009012FB00F28E189A46317D09B1D4
:10B3300008209FE0297C042928BF0720F9D20FF2BA
:10B34000C02151F82010484600F05FF908B11120E3
:10B3500090E02868FF284FF0FF3709D000210191C5
:10B360000023E97C009100F087F8D5F800B000E0F8
:10B37000BB466868FF2807D0002101910091002397
:10B380000022FFF7B6FF6F680020019000900022B6
:10B39000AB7CE86800F071F8002001900090002379
:10B3A000A86800F069F8E86800905B46A9683A462A
:10B3B0004846FFF78CFF002200214846FFF794FF24
:10B3C000002200214846FFF78CFF287C697C01B1F0
:10B3D0000121012809D00AD3032803D038BF41F046
:10B3E000040104E041F0060101E041F002014FF4E4
:10B3F000A06009EB000779654FF48271287DF8653C
:10B40000687DC9F8C0054846FFF754FF4FF49471B2
:10B410004846FFF74FFFD9F8000240F00400C9F892
:10B42000000200207075C6F80880C6F818A040F227
:10B430000240C9F80403A97D2068000349010016F1
:10B4400006D56B4A00F00F00104400F8041C01E020
:10B45000684A1154012120680003001600F01F0201
:10B460009140654A400942F82010012030750220C1
:10B4700038600020BDE8FE8F0022002139E710B5BA
:10B4800002795A4900681C235A438C180021C0F8DD
:10B49000001501220103091601F01F039A40574BC2
:10B4A000490943F821204FF0FF31C0F8081300F09C
:10B4B000C5F80020207510BDE0B50A46517D012970
:10B4C00004D017D3032908D002D307BD416207BDBA
:10B4D00000208DF80000019007E001218DF8001098
:10B4E00000F23C5001680191006902906846916940
:10B4F0009268904707BD4A75DEE7000070B5057990
:10B500003A4C1C2616FB05F6344425B9049DFF2D44
:10B5100098BFFF2A01D9092070BD00291CBF01F086
:10B520006046B6F1005F06D1002B1CBF03F06046F9
:10B53000B6F1005F01D0102070BD667D032E10D8DB
:10B54000DFE806F0020D0202E1602361226065601F
:10B55000012200682146FFF7CEFF002502E0082502
:10B5600000E00325284670BD10B54FF494714FF0EC
:10B570004020FFF7A7FE1D4CF0B14FF494714FF03F
:10B580004020FFF797FE607D012815D12268E16811
:10B590004FF04020FFF7A5FE626821694FF0402080
:10B5A000FFF7A2FE4FF040210120886202222146CF
:10B5B0004FF04020FFF79FFF4FF482714FF0402083
:10B5C000FFF780FE78B14FF482714FF04020FFF713
:10B5D00071FE607D022806D12146BDE8104003229D
:10B5E0004FF0402087E710BD00070050FC8100208D
:10B5F00018ED00E000E400E000E100E080E100E0A0
:10B6000069B5070011480068004738B50C46104975
:10B61000884211D10020FFF746FC0C480179002533
:10B62000002911BF01250460012101710020FFF7ED
:10B630003BFC0DB1112032BD002032BD04498842CF
:10B6400003D1024800210160017170473C82002053
:10B6500000200040B0480021417007E0AE480021C2
:10B660000170C160418001614170416181618180EF
:10B67000C16100207047F8B5A74D064668690024EF
:10B68000032801D30720F2BDA9690C2749B9A9688D
:10B69000784308440169080003D0A888884704005B
:10B6A0001FD16969A868794308444269100004D031
:10B6B000A86931469047040013D1A888A969421EA1
:10B6C000914210D16A69A9687A43114489690A00D4
:10B6D00001D0884704466869401C6861FFF7BAFFDB
:10B6E0000CB12046F2BDA869401CA861F9E770B50D
:10B6F000894C0546E06838B9A0684168080003D065
:10B7000060888847060030D1A168606989898842CD
:10B7100028BF072629D2607830B1012823D12846D6
:10B72000FFF7A9FF06461FE0E069062602281BD2A4
:10B73000C0F10102A188D20005FA02F200261143ED
:10B740000128A1800BD1607089B22069E661A661F1
:10B750008A1C904223BF401A801E20610726E069A0
:10B76000401CE06100E008260EB1304670BD6088E4
:10B77000E168421E914208D1A16889680A0001D09F
:10B7800088470646FFF76AFFEFE7481CE060ECE7F2
:10B790002DE9F041614E604F002504468846C6F809
:10B7A0009C5004E0D6F89C00401CC6F89C00D6F8DB
:10B7B0009C1041450CD2605C3A7862B1012A30D1CC
:10B7C000FFF795FF05460DB1FFF748FF002DE9D0C3
:10B7D0002846BDE8F081062599B10329F3D2C1F1CD
:10B7E00002037A88DB00984010430229788005D153
:10B7F000012180B239703861FFF72CFF0025E2E7A4
:10B80000521CD2B2342111FB02F1735E13F1010F0D
:10B8100004D08342F4D17018B860002500207880ED
:10B82000D1E70825D0E738B500F076F904463C4D5D
:10B83000FF21281DFDF702FE002028702B1DFF2090
:10B840000090FF2221460FF2E400FFF757FE08B1F7
:10B8500000F077F9002032BD10B50446B1F5807FC5
:10B860001CBF002000F06DF994F8FF102046BDE8E1
:10B8700010408DE737B5C0B09DF8000101281BD1FD
:10B8800068464FF48071FDF7D9FD419D244C2A464E
:10B89000211D6846FDF7BCF942988DF8FF50C0B2F3
:10B8A00000F00DF91F4A4FF480716846FFF794FAD3
:10B8B00001202070FFF7B7FF43B030BD80B50FF215
:10B8C0006C00FFF7DCFD002002BD00B587B000F082
:10B8D00015F9FFF7C3FE0FF25C01134A684691ECBD
:10B8E000060B80EC060B00208DF8100069460D2039
:10B8F00003900B200090082001900C2002900FF282
:10B900002C0000F06CF908B100F01BF9FFF78BFF79
:10B91000002007B000BD0000DC810020C80300202B
:10B92000607F002059B8070075B80700004000404C
:10B9300000000000FF000000FF000000FF0000000A
:10B94000FF00000000000000FFFF06002DE9F045A9
:10B9500083B004000F4616469846009708BF07209C
:10B9600048D0F82F03D20A9D7819864201DA0420C4
:10B9700040E0DFF8A8A1012100F03EF808B100F096
:10B98000E0F8B91DC9B200F037F808B100F0D9F8F5
:10B99000310A00F031F808B100F0D3F8F1B200F04C
:10B9A0002BF808B100F0CDF8414600F025F808B1B9
:10B9B00000F0C7F8290A00F01FF808B100F0C1F83C
:10B9C000E9B200F019F808B100F0BBF86A46214668
:10B9D000504600F073F90099B94218BF042000D115
:10B9E00008B100F0AEF8042100F006F808B100F04C
:10B9F000A8F80020BDE8FE85504600F02EB92DE9DC
:10BA0000FC4E81468A46F720BAFBF0F4002700FB83
:10BA100014A0050018BF0125B9F1000F9346019746
:10BA2000564608BF07200DD001AA00213B4800F070
:10BA300045F9291901980AEBC10189B2884212D24D
:10BA400004273846BDE8F68EAAEB060080B20090C7
:10BA50005B46524621464846FFF778FF0700F0D183
:10BA6000361BB6B2A144002EEBD0BAF1F80F2CBFB2
:10BA7000F7245446E8E7F8B50C46051BEDB2291942
:10BA8000FF2910DC264F41F21406381981192A4685
:10BA9000B81900F03BF9781921463044BDE8F84068
:10BAA000FF22FDF7E1B8F1BD1D4800214170017092
:10BAB00041F21403FF22FF211844FDF751BD10B5D8
:10BAC00082B0FF210091164C617822784118617094
:10BAD000C9B2914204D201461046FFF7CCFF13BD14
:10BAE000FFF7E2FF41F21400211841F204006A4618
:10BAF000204400F0BFF80098207013BD80B5FFF718
:10BB0000D3FF0748011D41F204031844BDE8084073
:10BB10004FF4805200F08FB8024870473474002010
:10BB20003064002044740020BFF34F8F2348244A20
:10BB3000016801F4E06111430160BFF34F8F00BF62
:10BB4000FDE7F1E780B528B1012811D0052818BF1D
:10BB5000072814D1012000F043F9002000F029F952
:10BB6000012000F026F9BDE80240022000F026B9CD
:10BB700000F024F9BDE80240022000F01AB901BD2E
:10BB800080B500224FF48051002000F05BF908B12D
:10BB9000FFF7CAFF0B480022C0F5FC2100F052F964
:10BBA00008B1FFF7C1FF084800F007FA08B1FFF736
:10BBB000BBFF00F0A3FA002002BD00000CED00E086
:10BBC0000400FA050080070045BB070010B50B46CE
:10BBD00007C8084C54F82330BDE81040184710B58A
:10BBE0000379044C44F82320BDE81040024AFFF7D3
:10BBF0008EBB000028820020CDBB070010B5026874
:10BC0000C36884882340D154C168491CC16010BDF9
:10BC100010B503688468808861180840185C10704B
:10BC200010BD10B50A4604460021FFF7F1FFA068D9
:10BC3000401CA06010BD09B90E207047130002D04F
:10BC4000531E134201D0092070470160511E8180AC
:10BC500000218160C1600020704780B58268C368A0
:10BC60009A1A8388934203D3FFF7C8FF002002BDCE
:10BC7000042002BD2DE9F0410400164614BF002E39
:10BC80000E200D4618D0A068E168D6F80080081A8A
:10BC90000027804588BF8046306008B905200BE04A
:10BCA0002DB908E0E9192046FFF7BBFF7F1C474587
:10BCB000F8D3C6F800800020BDE8F0812DE9F041FE
:10BCC0000400164614BF002E0E200D461BD0A0689F
:10BCD000E168A288D6F80080511A4018401C00275D
:10BCE000804588BF8046306008B904200BE02DB93C
:10BCF00008E0E95D2046FFF781FF7F1C4745F8D348
:10BD0000C6F800800020BDE8F081FEE781423ABF1E
:10BD100053189842FCF76CBF8018990707D0521E41
:10BD200024BF13F8011D00F8011DF6D870478107E4
:10BD30001CD1103A07D330B433E93210103A20E95D
:10BD40003210F9D230BC1032121F24BF53F8041D38
:10BD500040F8041DF8D838BF121D521E24BF13F836
:10BD6000011D00F8011DF8D8704700BF083A07D33D
:10BD700033E90210083A40F804CD40F8041DF7D228
:10BD80000832EAE741EA420141EA8302009942EAC5
:10BD90000122019942EA01410F4A42F820107047FE
:10BDA000012202FA00F00D4A00290CBF5060106019
:10BDB00070470FF27C02105C0021F1E70FF2700275
:10BDC000105C0121ECE710B500242046FFF7F6FFD8
:10BDD000641C042CF9D310BD000700500805005066
:10BDE0007CB50446E00710D500250FF2440600207C
:10BDF000019000900023705D01220121FFF7C2FF36
:10BE00006D1C042DF3D3FFF7DEFFA0070ED5002431
:10BE10000FF220050020019000900323285D0022EE
:10BE20000021FFF7AFFF641C042CF3D373BD0000A7
:10BE3000111213140D0E0F1000B580F308888E46F2
:10BE4000104700BD30B50A0502D1B0F5FE2F01D96B
:10BE5000072030BD000B491E00EB11312C4A01E0D8
:10BE60005361401C814212D344090123A0EB4415C5
:10BE7000AB40032CF5D8DFE804F004060803F0E734
:10BE8000EEE71360EDE75360EBE71361E9E70020AD
:10BE900030BD30B504461F4889B00022C0F5FE21F0
:10BEA000FFF7D0FFFDF74EFC1B49896909180022F6
:10BEB0000020FFF7C7FF2568211DEFF305800C6800
:10BEC000002181F3148881F3108881F3118881F3B4
:10BED0001388C00504D122464FF0FF31284612E0F6
:10BEE00068460FF238012022FCF792FE06942022C9
:10BEF000A5F1200469462046FCF77AFE6FF00602A1
:10BF00004FF0FF312046FFF797FF09B030BD00002A
:10BF1000000600400080070044750020000000007B
:10BF20000000000000000000000000000000000011
:10BF3000FFFFFFFF00000000000000016449012036
:10BF400008707047BFF34F8F6248634A016801F47D
:10BF5000E06111430160BFF34F8F00BFFDE7002890
:10BF600008BFFFF7EFBF5A49002008705B48FEF793
:10BF700002BF0120F3E710B50446C01E012806D910
:10BF8000C01E01289CBF0120FFF7E9FF04E05449CF
:10BF90004FF4701000F077F94D484168080003D065
:10BFA0002046BDE81040084710BD002B06BF0378AF
:10BFB000012BFDF7A3B9012070472DE9F041444E54
:10BFC00070600020FEF72EFE002866D100F027FAF0
:10BFD000444C18B1022863D065D35EE04248016842
:10BFE0000127C9034FF4701803D54FF48031016065
:10BFF0000BE0606800F0F800A82807D16068C0076F
:10C0000004D5606800F0560060600027374D286A4C
:10C0100001281DD143F2040035490068884209D146
:10C020006A6B4FF418703B464FF480512818FFF7A5
:10C03000BCFF68B1FDF786FB0146AA693B4605F2E5
:10C04000A120FFF7B2FF18B1206810F0B1001BD09B
:10C0500000F057FA06F1080240214FF48070FEF715
:10C06000A7FE08B1FFF76DFD206800F0F800B028CA
:10C0700006D12068C00703D5206800F04E0020607C
:10C080000020C04698B108E00020C04628B93070B2
:10C090001848FEF770FE00F031F80320BDE8F0818B
:10C0A0004FF4A028D4E70120FFF759FFF5E70C492A
:10C0B000404600F0E8F8104800F06AFA0028ECD199
:10C0C00000F03CFAFEF7C6FE20BF40BF20BFF7E7F6
:10C0D000800C00200CED00E00400FA0545BF0700CD
:10C0E00073BF07001C050040000400404475002099
:10C0F000DBE5B1513DBF070077BF070080B50749B9
:10C100004FF0FF3008600649086000F067FABDE8AC
:10C1100002404FF48050FFF7BCBE00BF80E100E05A
:10C1200080E200E0000000000000000000000000CD
:10C1300081B00022425040580090009801B07047F2
:10C1400038B55C4C207820BB5B480068C00302D443
:10C150005A49012008604FF48071594D00F034F8BD
:10C160004FF4A07100F030F84FF4A27100F02CF8F9
:10C170005449A020087010205349086000205349FA
:10C1800008600120A8602860022051490860012051
:10C19000207031BD38B50446494D05EB8400C0F828
:10C1A00040154FF4F8600FF2581141F00101884733
:10C1B000A00000F5A07001B200F006F84FF4803046
:10C1C0004349A040086031BD2846B1E76FF07F4287
:10C1D0000B46914288BF13463E4A1268D218C91ACC
:10C1E00022F07F4203D096293CBF9631963A4160B7
:10C1F0001146007BCEE7007B4FF4803101FA00F05E
:10C2000035490860704770B504460D461646FFF77D
:10C2100097FF266029462046BDE87040D6E7F8B56E
:10C220002E48274C00682E4D38B1286A401C2862E1
:10C230004FF482712046FFF77BFF0026B00000F527
:10C24000A07000B22058D0B1B00000F5A07001B2CB
:10C250002046FFF76DFF05EB06173846FFF7CBFFCB
:10C26000796819B13846FFF7B1FF08E0B96811B134
:10C270003846FFF7ABFF3868010018BF8047761CCF
:10C28000022EDBD3F1BD70B5164E044630680D4664
:10C29000FFF7B1FF2CB130682A462146BDE8704057
:10C2A000B1E770BD104A136898600A460146184607
:10C2B000A9E7000050820020180400400800004058
:10C2C0000040024024E400E004E100E008450240B0
:10C2D0000443024004450240084302400441024036
:10C2E000080000202C00002030000020000000008A
:10C2F000000000000000000000000000000000003E
:10C300000338FDD8704700002DE9F84F80468A4673
:10C31000C24516461F4608BF002035D0AAEB0800CC
:10C32000050B06F6FF704FEA103900F0EAF800241A
:10C33000AF4288BF2F4636B34F4527BFCB46354661
:10C34000BB463D03002259464046FDF76DFB040005
:10C3500019D1691EE81C01F00301421A002351465D
:10C360004046FDF758FB04000DD15348016B691896
:10C3700001630020FEF702FD761B0400A9EB0B0908
:10C38000A844AA44D7D02046BDE8F28F70B5FDF787
:10C39000F6F9494A946C536B116B484E5A1A02F6DF
:10C3A000FF75521EC2F30B02AA1A04F500552D1D8B
:10C3B00008182D68B54201D0032070BD994201D103
:10C3C000002070BD08230919FFF79EFF002804BF55
:10C3D000BDE87040FEF7D2BC70BD38B53648C16AC2
:10C3E000446A856CAC2903D1406B4519241A03E0DB
:10C3F00015B9FDF7B6F90546224629463048FDF73E
:10C4000095FA38B100F09AF821462846BDE8344044
:10C4100000F0D4B832BD2B49012008707047F8B540
:10C42000254DE86A0024012806D0A52832D0AA2884
:10C4300034D0AC2835D03BE06E6AAF6CFDF782F9A2
:10C44000296B0818721AC919814208BF00220823F3
:10C45000FFF75AFF60B9FDF775F900223146FDF785
:10C460009DF8A96A884203D101212962E861AE6181
:10C4700005F12400FDF742F9124900200870124826
:10C48000FEF77CFCB0B90120ACB1296A012912D1B8
:10C490000220F2BDFFF77AFF0124E9E7FFF79DFFD5
:10C4A000E6E7FFF773FF0028F6D1FFF796FFF3E703
:10C4B0000020F2BD0320F2BD44750020DBE5B15140
:10C4C000008007005182002017C407001F48006841
:10C4D00060B100201E4A1F490968C140C90744BF16
:10C4E0001D4942F82010401C0728F4DB7047EDE797
:10C4F0001A4881B00021016000680090009801B0E6
:10C50000704738B5164C2078B8B91048006890B11B
:10C5100014480068A0F548619629B4BF9625A0F597
:10C520004865FFF7D3FF10492846FFF7BBFE0F49C8
:10C530004FF4803008600120207031BD034800684E
:10C54000002818BFFFF7C2BF704700000004014079
:10C5500000060140080501403546526E00010140C9
:10C560005282002004050140EFC4070000E100E012
:10C5700010B50446062C04BF002000F063F80D48F7
:10C580000168080003D02046BDE81040084710BDF0
:10C5900010B50849084C08600020FFF7E9FF204665
:10C5A00000F042F820B92046BDE81040FEF7B6BAC8
:10C5B00010BD00004882002071C507007FB5044609
:10C5C0000D460FF244000FC86E4686E80F00A8081B
:10C5D00002900194684618DF04B070BD1FB50FF2D9
:10C5E00038000FC86C4684E80F004FF48051019169
:10C5F000684618DF072803D14FF000500160002083
:10C6000004B010BD000000000000000000000000A9
:10C610000000000000000000060000000000000014
:10C620000000000000000000F8B500F01AF800E07B
:10C63000761CAE4205D257F83610204688470028AF
:10C64000F6D0F2BDF8B500F00CF800E0761CAE4272
:10C6500006D207EBC6012046496888470028F5D076
:10C66000F2BD044603480449044F401AC50800209F
:10C6700000267047ACD70700A4D70700A4D707004F
:10C6800010B596480178062904BF017911F00F0F03
:10C690000FD1816801F0F002302A1EBF402A01F05C
:10C6A000F001502905D18E498E4A0968C1F3042151
:10C6B00011600178062904BF017911F00F0F02BF44
:10C6C000017A01F0F001302902D1874A87491160CF
:10C6D0000378874A8749062B04BF037913F00F0FAD
:10C6E0000DD1836803F0F004302C1EBF402C03F002
:10C6F000F003502B03D10B68C3F34233536003782C
:10C70000062B04BF037913F00F0F02BF037A03F067
:10C71000F003302B04D1784B1C6824F080741C602B
:10C720000378062B04BF037913F00F0F0ED1836833
:10C7300003F0F004302C1EBF402C03F0F003502B0C
:10C7400004D16E4B00241C605C6014600378062BDF
:10C7500004BF037913F00F0F06D1037A03F0F0033F
:10C76000302B04BF032393660278062A04BF0279A4
:10C7700012F00F0F02BF027A02F0F002302A08D145
:10C780005F4A0523136001239367002393603F23CF
:10C7900053600278062A04BF027912F00F0F02BF1D
:10C7A000027A02F0F002502A23D1564B564A1C68F6
:10C7B00014605C6854609C689460DC68D4601C6998
:10C7C00014615C6954619C691462DC6954621C6A7E
:10C7D00094625C6AD4629C6A1463DC6A54631C6B66
:10C7E00014645C6B54649C6B9464DC6BD4641B6C4D
:10C7F00013650278062A04BF027912F00F0F0ED1DA
:10C80000826802F0F003302B1EBF402B02F0F002D2
:10C81000502A04D149693D4A01F04F011160017865
:10C82000062904BF017911F00F0F10D1806800F0C4
:10C83000F00130291EBF402900F0F000502806D139
:10C8400033480168C90744BF6FF0010101603148F6
:10C850000168062904BF4068062804D12E480168F3
:10C8600041F4806101602D48C16F41F47001C167DE
:10C87000BFF34F8FBFF36F8F29490A68002A5CBF4F
:10C880004A68002A21D5274A01231360264B1C68D9
:10C89000002CFCD015240C601C68002CFCD0152446
:10C8A0004C6019680029FCD000211160196800292A
:10C8B000FCD0BFF34F8F01681C4A01F4E0611143C3
:10C8C0000160BFF34F8F00BFFDE7024902480860D7
:10C8D00010BD0000680400200090D003E00F00F0BD
:10C8E000240300104035014074C007400DF0ADBA7C
:10C8F0003805004044020010FCED00E00C0100404F
:10C90000105600400404001020C50040E40E004012
:10C9100000040040300100103C1700400CED00E026
:10C920000012001004E5014000E401400400FA0593
:10C930000870020A4A70020C000EC8708A70042047
:10C940007047F8B50446602025690E46287003211B
:10C95000307868707078A870707801284CD1307881
:10C9600060B103282BD006282DD007283BD00928FA
:10C970003FD00A2803D00B2814D046E039E000F05D
:10C9800049F8C71CFFB2B06800F049F8C71900F0B9
:10C9900044F8C719FFB2306900F041F8C719FFB277
:10C9A00070691BE03079E870291DB068FFF7C0FF9F
:10C9B000071D00F032F8C719FFB230690EE000F031
:10C9C00029F8C71C08E0F06800F025F8C71CFFB282
:10C9D000706800F024F8C719FFB2B06800F01FF8C3
:10C9E000C119C9B211E0B088E8700521000A2871A8
:10C9F0000BE03079E87007E00B2806D1FEF7DAF893
:10CA0000E8700020FEF7D2F8042162682846BDE8ED
:10CA1000F84010477068E91C8AE7FFB2F068E9192E
:10CA200086E710B50A46017808290AD15188491EBF
:10CA3000518013881C0009D089B239B95380032171
:10CA400001700146BDE8104010467AE710BD30B5D0
:10CA50000D4687B004460FF2A401684691EC060B20
:10CA600080EC060B28788DF8000001949DF80000FA
:10CA7000012816D002280AD006280FD007282DD06A
:10CA8000082823D009282DD00B282ED12AE0687839
:10CA9000A97840EA01202080608026E06878049030
:10CAA00023E02088608068780490A978EA7841EAD9
:10CAB00002212A7941EA02416A7941EA02610128A8
:10CAC000059112D16069FFF7BDFD0EE0681C04906E
:10CAD000501EADF81400A068039009E0E068ADF8BE
:10CAE000100002E068788DF81000681CA168884783
:10CAF0006846FEF70BF807B030BD000000000000EC
:10CB00000000000023CA0700000000000000000031
:10CB10000000000000000000010001000000000013
:10CB200001000000000000000200050001000000FC
:10CB300022000000000000000000000000000000D3
:10CB400000000000000000000100010000000000E3
:10CB500001000000000000000200050001000000CC
:10CB60004200000000000000000000000000000083
:10CB70000000000000000000010011000400FCFFA4
:10CB80000400000000000000020011000400FCFF8F
:10CB90000400000000000000030021000400FCFF6E
:10CBA0000400100000000000040011000100FFFF5D
:10CBB0000100000000000000050011000200FEFF5F
:10CBC0000400000000000000060011000400FCFF4B
:10CBD0000400000000000000070011000400FCFF3A
:10CBE0000400000000000000080017000200FEFF23
:10CBF0002400000018CB0700090010000100FFFF0F
:10CC00000100000014CB07000A0027000200FEFF0D
:10CC10004400030048CB07000000000000000000B3
:10CC20000000000000000000010011000100FFFFF3
:10CC30000100000000000000020017000200FEFFDB
:10CC40006401000078CB0700000000000000000035
:10CC500000000000000000000100070000000000CC
:10CC60006801000028CC070002000100000000005D
:10CC700001000000000000000300050001000000AA
:10CC80004200000000000000000000000000000062
:10CC90000000000000000000010017000400FCFF7D
:10CCA0006801000028CC0700020017000400FCFF08
:10CCB000AC01000058CC070000000000000000009C
:10CCC0000000000000000000F0B5082289B00C460A
:10CCD0000646FDF737FACB6A03930B6B04934B6B55
:10CCE00005938B6B0693CB6B0793002708236A464B
:10CCF00069466846029701970097FDF751FB0823A4
:10CD000005466A4631463046FDF74AFB236B0393DE
:10CD1000636B0493A36B0593E36B069305440823AD
:10CD20006A46694668460797FDF73AFB08230544BB
:10CD30006A4631463046FDF733FB236A0093636A47
:10CD40000193A36A0293A36B0693E36B07930544D5
:10CD500008236A4631463046059704970397FDF746
:10CD60001FFB636A0093A36A0193E36AA26B0293B9
:10CD7000636B039304920693E26B236A0592054466
:10CD800007936A46082331463046FDF709FBE36AFC
:10CD90000093236B0193636B0293236A0693A36A48
:10CDA0000793054408236A463146304605970497A1
:10CDB0000397FDF7B5FA236B0093636B0193A36BA5
:10CDC0000293E36B0393636A0693E36A07932D1A56
:10CDD00008236A463146304605970497FDF7A0FAC6
:10CDE000636B0093A36B0193E36B0293236A03933A
:10CDF000636A0493A36A0593236B07932D1A082390
:10CE00006A46314630460697FDF78AFAA36B0093CF
:10CE1000E36B0193636A0393A36A0493E36A059344
:10CE2000636B07932D1A08236A46314630460297F2
:10CE30000697FDF775FA2D1A16D508230D4A3146C7
:10CE40003046FDF7ADFA2D18F7D410E00822314630
:10CE50000848FCF7F1FF012809D00823054A3146AC
:10CE60003046FDF75DFA2D1A002DEFD0F5E709B039
:10CE7000F0BD00BF6CD407002DE9F04793F90060C6
:10CE800092B0044689461046314615469846FCF74E
:10CE9000C4FF002840F098804246494602A8FDF7AA
:10CEA00052FC434602AA21460AA8FDF722FA02A92B
:10CEB00008464246FDF747FC43462A46494648464F
:10CEC000FDF717FA08F10407424629462846FDF700
:10CED0003AFC3B462A4621462046009600F077F869
:10CEE0003B462A4629462846009600F070F83B4605
:10CEF0002A46214628460096FDF731F943462A4640
:10CF000021462046FDF7F5F93B46224621462846B4
:10CF1000009600F05CF83B4600962A4621462046E3
:10CF200000F055F82368DB0714D533463A4621460E
:10CF30002046FDF735FA314682462046FDF720FAB5
:10CF400006F18043013B54F8230040EACA7044F8DC
:10CF5000230003E031462046FDF712FA42462146FF
:10CF60002846FDF7F0FB3B460AAA294628460096CC
:10CF7000FDF7F5F83B460AAA294628460096FDF734
:10CF8000EEF80AA908463B462A460096FDF7E7F860
:10CF900043460AAA21462046FDF7ABF902AA3B46C2
:10CFA000104621460096FDF7DAF83246294620461B
:10CFB000FDF7C8F8324649462846FDF7C3F8324621
:10CFC00002A94846FDF7BEF812B0BDE8F08770B57B
:10CFD0009DF910401E4623460546FDF7E1F930B99C
:10CFE000224629463046FCF727FF012807D0234672
:10CFF000324629462846BDE87040FDF791B970BD1C
:10D0000030B5044687B0A06888B10FF2FC056846C9
:10D0100095EC060B80EC060B0A9804908DF8001036
:10D02000029303920B9805906846A168884707B061
:10D0300030BD0FF2C80141600020704780B52E4816
:10D0400000F088F8002002BD80B510461A46FBF7B4
:10D05000CFFD002002BD2DE9FC410446DFF8988099
:10D060000D4616461F46404600F072F808B11120E2
:10D0700011E0BA083146284600F088F8404600F032
:10D0800069F80898019000972B4632460121204606
:10D09000FFF7B6FF0020BDE8F6812DE9F043044616
:10D0A000DFF8549083B0884616461F46484600F085
:10D0B0004FF8002530B1112012E008EB053000F0E8
:10D0C0004BF86D1CB542F8D1484600F043F8019783
:10D0D00000964346002202212046FFF791FF0020E0
:10D0E000BDE8FE830846704700207047024800688C
:10D0F00000B10120C0B270474C8200200010000037
:10D10000040000000100000000000000000000001A
:10D11000000000000000000000000000000000000F
:10D1200010B550E8002F42EA010440E8004393F0B4
:10D13000000FF6D1104610BD10B550E8004F04EABC
:10D14000010240E8002393F0000FF6D1104610BD15
:10D150000121E5E70021EFE7074902220A60BFF35A
:10D160006F8FBFF34F8F4860044800680028FBD0E2
:10D170000020086004E0000004E5014000E40140F4
:10D18000BFF36F8FBFF34F8F7047000030B5034B75
:10D1900001241C6000F017F800240DE004E50140B4
:10D1A00051F8245040F82450004D01E000E40140C3
:10D1B0002D68002DF8D0641C9442F1D30020186033
:10D1C00000F001F830BDBFF36F8FBFF34F8F704792
:10D1D000011F364800F0AAB81CB5024601A800900D
:10D1E0000B46334C312104F1300000F0B4F820B983
:10D1F000019904F1300000F021F916BD10B52C4C56
:10D200000146201D00F0DDF880B9E268A16804F154
:10D210001400FFF71CFC254800F069F808B9042049
:10D2200010BDC01CA0600020E0602071002010BD77
:10D2300070B51F4C217809B1002070BDE0621B4D14
:10D24000284600F03DF8060020D1284600F04FF8AF
:10D25000C01CA0600020E0608320206100202071BD
:10D260001448A0611448E0618320206204F1490061
:10D2700060621248A062FEF728FB060006D101207A
:10D280002070E16A08001CBF01208847304670BD4D
:10D2900010B5074C217800291CBF0849884203D0EB
:10D2A000FEF70CFB00202070002010BD60D70700A7
:10D2B00010810020D9D10700D1D10700A4D70700E1
:10D2C00010B508B90E2010BD036841688268196066
:10D2D000521A03E019684C1C1C600A7011464A1E61
:10D2E000C9B203680029F5D10020187110BD38B506
:10D2F00004460020FDF7D7FD20686268016800251C
:10D300008A420ED2491E01600B78258AE2686B437F
:10D31000D518A268511A0279CBB29A4238BF1A4680
:10D3200002710020FDF7C0FD284632BD38B5044625
:10D330000D460020FDF7B7FD206801684A1C026019
:10D34000E068228A281AB0FBF2F008700020BDE8DD
:10D350003240FDF7A9BD70B5002818BF002A01D0E2
:10D36000049C0CB90E2070BD5D006D1CA94201D259
:10D37000042070BD0021216005E025686E1C266038
:10D38000565C4655491C99420DD2555CC02D02D0C1
:10D39000DB2D04D0F1E700F00DF8DC26F1E700F01A
:10D3A00009F8DD26EDE721684A1C2260C0224254BC
:10D3B000002070BD2568DB2646556D1C6E1C26605E
:10D3C000704710B508B90E2010BD8268C3689A4234
:10D3D00001D1042010BD04781CB1022C24D00ED33E
:10D3E00027E0C02902D0DB2902D003E0002010BDD5
:10D3F000012113E0531C83604068815419E0DC294B
:10D4000002D0DD2904D00BE0511C8160C02102E074
:10D41000511C8160DB21436899540021017008E0B0
:10D42000022101700B2010BDC02902D10021017022
:10D430008160112010BD0846FFF7E0BEF8B5044634
:10D440000D4600204FF6FF766DB1B54234BF2F4632
:10D4500037460D22A9B22046FEF7D1FABFB2ED1B26
:10D4600000283C44F0D0F2BD08200001FFFFFFFF80
:10D47000FFFFFFFFFFFFFFFF0000000000000000B4
:10D480000000000001000000FFFFFFFF512563FCCA
:10D49000C2CAB9F3849E17A7ADFAE6BCFFFFFFFF2F
:10D4A000FFFFFFFF00000000FFFFFFFF96C298D8BC
:10D4B0004539A1F4A033EB2D817D0377F240A463BD
:10D4C000E5E6BCF847422CE1F2D1176BF551BF37C6
:10D4D0006840B6CBCE5E316B5733CE2B169E0F7C99
:10D4E0004AEBE78E9B7F1AFEE242E34F4B60D22766
:10D4F0003E3CCE3BF6B053CCB0061D65BC8698765C
:10D5000055BDEBB3E7933AAAD835C65A79CE070092
:10D5100019D50700C9CC07002DE9F04115468AB09E
:10D52000044688462022002102A800F022F82E1D81
:10D5300095F9007003232A46414620460293FDF7E1
:10D5400002F9334602AA214620460097FCF707FE5F
:10D550002B46424621462046FCF7CBFE0097334639
:10D5600005F1840221462046FFF731FD0AB0BDE8EF
:10D57000F08110B5044610460A4601462046FBF7E6
:10D5800073FB204610BDFEE740900E66E5E0648F19
:10D59000942D2D048A34CA02B952D75517B7DC7DB1
:10D5A000D6EA759C2678B97194AACFA7B31BB0466A
:10D5B000528F76EEB1DEFA713F77ACAB019B163538
:10D5C00014260CEC98977B5D19E050F8041BCB07F0
:10D5D00044BFA9F101035918121F0023042A41F87E
:10D5E000043BF9D25FEA827C0B4604D54FF0000C75
:10D5F000A1F800C09B1CD10744BF0021197050F84E
:10D60000042B002AE1D1704730B501684268846874
:10D61000014401EB5203D20748BF4C44994201D167
:10D620000C3030BD11F9012B11F8015B002A04F810
:10D63000015B02D5521CF9D1F0E7521EF4D5EDE79B
:10D640000830FDF7D3BC0830FDF7FABC10B514461E
:10D650002268202A02D248F2145010BD002208305D
:10D66000FDF712FD10B920202060002010BDFEE75C
:10D6700010B5074979441831064C7C44163404E04F
:10D680000A68081D114488470146A142F8D110BD1F
:10D690002C000000580000004EF68851CEF2000128
:10D6A000086840F470000860BFF34F8FBFF36F8FBE
:10D6B0004FF00070E1EE100A704700000DFFFFFF11
:10D6C000D8750000800C0020000000003DFFFFFF27
:10D6D000160100008E000000080000202DFFFFFF53
:10D6E0004D0100001C0000006C040020FEE700005B
:10D6F00033D007003DD0070049D0070057D00700BE
:10D700009BD00700E5D00700E9D00700EDD0070067
:10D710000120C046002801D0FFF7AAFF0020C04624
:10D72000C046FEF72DFA00F000F800F001B8FEE761
:10D730000746384600F002F8FBE7FEE72021090320
:10D7400026311820ABBEF9E741D6070047D60700BF
:10D750004DD6070020000000780000000000000007
:10D7600034820020748100209C810020904F002092
:10D7700084000000014880470148004781C6070037
:10D7800091D7070048002800002040009DD70700DF
:10D79000C046C046FFF780FFFFF7BAFF004870475A
:10D7A00068D4070031D2070091D2070000207047EB
:10D7B000FEE7FEE7FEE7FEE7FEE7FEE7FEE7FEE741
:10D7C000FEE7FEE7FEE7FEE7FEE7FEE7FEE7FEE731
:10D7D000FEE7FEE7FEE7FEE7FEE7FEE7FEE7FEE721
:10D7E000FEE7FEE7FEE7E4000001F900080800009C
:10D7F000201800002001F00001E007810081008175
:10D80000008100810081008100F800000CF9000413
:10D81000ADD7070001D900000DF5000001F90002A5
:10D8200037D407E300FEFFC9000290D003F80005DB
:0BD83000019A07000010FC0001080036
:040000050007D79188
:00000001FF
