:020000040002F8
:10600000A0570020D5370300EF7302002774020069
:106010008B74020057750200CF750200000000006B
:106020000000000000000000000000008377020074
:10603000B377020000000000E3770200A37C0200B7
:106040006B320300FB7E02009D270300777F020076
:10605000512403001B8002009D1A0300EB910200F3
:10606000279402008F9402003BA802001FAC02009C
:1060700053BB0200B7EA0200071803002B18030005
:10608000D5360300B5FC0200533703007337030015
:1060900053FD02007F370300951003003F380300D3
:1060A000693803006B3803006D3803006F38030054
:1060B0007138030073380300000000000000000086
:1060C0007538030077380300793803007B38030004
:1060D0007D3803007F380300813803000000000092
:1060E00000000000000000000000000000000000B0
:1060F00000000000000000000000000000000000A0
:10610000000000000000000000000000000000008F
:10611000000000000000000000000000000000007F
:10612000000000000000000000000000000000006F
:10613000000000000000000000000000000000005F
:10614000000000000000000000000000000000004F
:10615000000000000000000000000000000000003F
:10616000000000000000000000000000000000002F
:10617000000000000000000000000000000000001F
:10618000000000000000000000000000000000000F
:1061900000000000000000000000000000000000FF
:1061A00000000000000000000000000000000000EF
:1061B00000000000000000000000000000000000DF
:1061C00000000000000000000000000000000000CF
:1061D00000000000000000000000000000000000BF
:1061E00000000000000000000000000000000000AF
:1061F000000000000000000000000000000000009F
:106200002DE9F04F82460FF25060A5B015461E46AC
:10621000D0E90023CDE91223002004910D900DF167
:1062200050086FF0004900E03D440020ADF8020046
:1062300012AB4FF0FF3229460DF1020001F0AFF82A
:106240000746012F04DA2878471EBF41FF43FF0F9E
:10625000BDF8020025280CBFA7F1010BBB46BBF11E
:10626000010F0EDB2C4614F8011B0498D0470028C0
:10627000049000F0F3800D98401CBBF1010B0D90D1
:10628000F1D1BDF80200252807D100200790089021
:1062900009900A900B900C9005E00028C4D10D984D
:1062A000E2E240F0010015F8011F2029F9D023296E
:1062B0000DD02B2904D02D2906D030290AD00CE08E
:1062C00040F0020080B2EEE740F00400FAE740F050
:1062D0000800F7E740F01000F4E72A290ED13168F2
:1062E000316051F8042B3160002A0F9204D55142DD
:1062F00040F004000F9180B26D1C11E000210F915D
:1063000009E00F99494505D001EB810302EB4301F8
:1063100030390F916D1C2A78A2F130010A29F0D38F
:1063200029782E2903D04FF0FF310E911DE015F88A
:10633000011F2A2907D1316831606D1C51F8042BE7
:1063400031600E9211E000210E9109E00E9949454D
:1063500005D001EB810302EB430130390E916D1C36
:106360002A78A2F130010A29F0D3ADF840000FF2EB
:10637000F040297801F030F808B115F8010B8DF8DC
:1063800042009DF84200682802BF297868296220EF
:1063900005D06C2804BF28786C2803D171208DF8B3
:1063A00042006D1C14A8069015F8017BB7F125007A
:1063B0002AD01C3800F0DB80001F022840F2D78072
:1063C000133800F0FE80093800F0D180801E00F004
:1063D0006B81401E00F04181401E022840F2C780C0
:1063E000001F00F03A81401F00F09280401E00F034
:1063F000E880401E35D0C01E0BD0801E00F0E1802A
:10640000C01E00F0DE8072E125208DF850000120D2
:1064100077E19DF842006C283068306014D050F865
:10642000044B306005940E9F002F04D5204600F0E9
:10643000DFFF074606E03A460021204600F0F4FF61
:1064400000B1071B08975DE150F8042B306002A9EA
:10645000504600F044FA002840F154814FF0FF30DC
:1064600002E231683160002251F8040B31600021F2
:10647000CDE9020114A80590DDE902019142069FD1
:1064800008BF90424FF03C0C01D10E9AC2B100F00F
:106490000F033033DBB23A2BA8BF2733ACF1010234
:1064A0000009BB54944640EA017009090022914258
:1064B00008BF904204D0059A07EB0C039A42E6D33A
:1064C00007EB0C000590CCF13C010E98089181423D
:1064D00009DA401A0A904FF6EF71BDF84000084003
:1064E000ADF840000EE1002840F10C819DF840001D
:1064F00000F01400102840F005810F98079A801AC8
:106500000A9A801A401A0128C0F2FC800A90F9E029
:106510009DF8420062281AD0682806D06A280CD05C
:106520006C281CD0712808D019E03068306050F811
:10653000041B30600D980880E4E03068306050F84B
:10654000042B30600D98C117C2E90001DAE0306811
:10655000306050F8041B30600D980870D2E030684D
:10656000306050F8041B30600D980860CAE0306855
:10657000C01D6FF0070101EA00023260D2E900019C
:1065800008323260CDE90201002902D507982D2199
:106590000AE0BDF84000810702D507982B2103E0EF
:1065A000C00705D50798202108F80010401C079067
:1065B00014A8079908440590394602A800F09AFBF0
:1065C000A0E09DF842006C280FD0712818BF6A28FF
:1065D0000BD13068C01D6FF0070101EA0002326084
:1065E000D2E900010832326005E03168316051F8CB
:1065F000040B31600021CDE902019DF842006828BA
:1066000003D1DDE9020180B20BE0622803D1DDE9AC
:106610000201C0B205E0742818BF7A2804D1DDE970
:1066200002010021CDE902019DF84000000732D5AA
:10663000DDE902230020834208BF82422BD047F0CD
:106640002000782827D10798302108F80010401C36
:10665000411C079108F800701DE09DF8420031468A
:1066600000F005F9CDE90201DDE9022300218B42AA
:1066700002DA07982D210AE0BDF84000810702D513
:1066800007982B2103E0C00705D50798202108F8BB
:106690000010401C079014A807990844059039463B
:1066A00002A800F0A2FA2DE09DF842006C2809D063
:1066B000012007903068306050F8041B30608DF87E
:1066C00050101FE03068306001AA50F8041B3060A1
:1066D000ADF804100020ADF8060002A94FF0FF301D
:1066E0000E90504600F0FBF800280BD5B6E62520AA
:1066F0008DF8500001200790380003D088F8017011
:10670000022007900F980799401A0A99401A089991
:10671000401A0B99401A0999401A0C99471A9DF88A
:106720004000400710D42020012F8DF800000BDB23
:106730003C4601236A4602A9504600F00BFE0028A1
:106740007FF48CAE641EF4D1DDF81CB0BBF1000FF9
:1067500014AC0DD014F8011B0498D0470028049005
:106760003FF47CAE0D98401CBBF1010B0D90F1D1B4
:1067700030208DF800000A9C012C0ADB01236A46B8
:1067800002A9504600F0E6FD00287FF467AE641EC3
:10679000F4D1DDF820B0059CBBF1000F0DD014F84A
:1067A000011B0498D047002804903FF457AE0D9881
:1067B000401CBBF1010B0D90F1D130208DF8000091
:1067C0000B9C012C0ADB01236A4602A9504600F00B
:1067D000C1FD00287FF442AE641EF4D105980899EB
:1067E000DDF824B04418BBF1000F0DD014F8011BE4
:1067F0000498D047002804903FF430AE0D98401C18
:10680000BBF1010B0D90F1D130208DF800000C9CF4
:10681000012C0ADB01236A4602A9504600F09AFDCA
:1068200000287FF41BAE641EF4D19DF840004007A1
:106830007FF5FBAC2020012F8DF80000FFF6F5ACB2
:1068400001236A4602A9504600F084FD00287FF427
:1068500005AE7F1EF4D1E8E4000000000000000057
:10686000686A6C747A4C000025B0BDE8F08F62282D
:1068700027D068281ED06A2808D06C2828D0712814
:1068800004D0742824D07A280DD021E00868C01DD7
:106890006FF0070210400860D0E90023083008605C
:1068A0001946104670470A680A6052F8040B0A60DD
:1068B000002170470A680A6052F8040B0A6000B2AF
:1068C0000BE00A680A6052F8040B0A6040B204E068
:1068D0000A680A6052F8040B0A60C11770472DE974
:1068E000F44F0D4694B0D5F830A0BAF1000F8046B1
:1068F00048BF6FF0004A00F0C3FD696B401801907B
:106900000FF68020D0E90023CDE9022395F8380066
:10691000400702D40198412805D240200DF110090A
:106920000190002609E000F0B1FD5FEA0009F8D10E
:106930004FF0FF3056E1AAEB040ABAF1010FC0F2A2
:10694000CE801498018802AA0DF1010000F0F6FD36
:106950000028044600F1DE801498008810B9641EF7
:1069600000F1D880A245C0F2BA8068690199221866
:10697000914280F0A2806E634042296A401AA96960
:10698000401A696A401AE969401AA96A461A95F8D4
:106990003800400710D42020012E8DF800000BDBBA
:1069A000374601236A462946404600F0D3FC0028BA
:1069B00040F0B0807F1EF4D1D5F814B0BBF1000FC9
:1069C0004F460DD017F8011BA868C0470028A860E3
:1069D00000F0A080E86A401CBBF1010BE862F1D135
:1069E00030208DF800002F6A012F0ADB01236A4650
:1069F0002946404600F0AEFC002840F08B807F1E08
:106A0000F4D1D5F818B0EF68BBF1000F0CD017F82F
:106A1000011BA868C0470028A8607BD0E86A401C1A
:106A2000BBF1010BE862F2D130208DF800006F6AF3
:106A3000012F09DB01236A462946404600F08AFC03
:106A4000002867D17F1EF5D1E868A969D5F81CB088
:106A50004718BBF1000F0CD017F8011BA868C047FE
:106A60000028A86056D0E86A401CBBF1010BE86220
:106A7000F2D130208DF80000AF6A012F09DB01232D
:106A80006A462946404600F065FC002842D17F1E38
:106A9000F5D195F8380040070DD52020012E8DF84E
:106AA000000008DB01236A462946404600F052FCFC
:106AB00080BB761EF6D100266E61224668690DF114
:106AC0000101484400F048FD686920186861149885
:106AD000801C1490801E008800287FF42CAF686B07
:106AE0006969401A296A401AA969401A696A401AF4
:106AF000E969401AA96AA0EB010A95F83800400735
:106B000010D4BAF1010F0DDB5446A8682021C0470C
:106B1000A86010B94FF0FF365DE0E86A401C641EC3
:106B2000E862F2D16B694A462946404600F012FC01
:106B30000028EFD12C6A012C0ADBA8683021C0475D
:106B40000028A860E6D0E86A401C641EE862F4D120
:106B5000AB69EA682946404600F0FCFB0028D9D121
:106B60006C6A012C0ADBA8683021C0470028A860A5
:106B7000D0D0E86A401C641EE862F4D1E868A969D4
:106B8000EB6942182946404600F0E4FB0028C1D1D9
:106B9000AC6A012C0ADBA8683021C0470028A86035
:106BA000B8D0E86A401C641EE862F4D195F8380059
:106BB00040070ED5BAF1010F0BDBA8682021C047B2
:106BC0000028A860A6D0E86A401CBAF1010AE86271
:106BD000F3D16E616E6304A881451CBF484600F086
:106BE000F7FC304615B0BDE8F08F2DE9F3430546BC
:106BF00008462F696F2808BF082405D041F02001FE
:106C0000782914BF0A2410243C26D5E900236428DF
:106C100018BF69289046994606D100218B4203DAB5
:106C2000D8F1000869EB49090020814508BF80457B
:106C30000CD1286B50B9082C38D195F838000007D2
:106C400034D530203B2687F83B002FE0701E0090A3
:106C50000646404649462246E31700F0F9FC02F199
:106C60003000C0B23A2803DB9DF8041051390818EF
:106C7000B855494640462246E31700F0E9FC8046F5
:106C800089460020814508BF804503D0E868B919CE
:106C90008842DBD3082C09D195F83800000705D5C8
:106CA000B85D302802D0761E3020B855B919E96099
:106CB000C6F13C00296BA861884208DA081A2862EC
:106CC0004FF6EF71288F08402887BDE8F38300292D
:106CD0000ED595F8381001F01401102908D1696B10
:106CE0006A69891A2A6A891A0E1A012EA8BF2E62A9
:106CF000BDE8F3832DE9F24F04468EB0D4E90001DC
:106D0000CDE9020104AF9DF8380040F0200BBBF143
:106D1000610F0AD0206B002848BF062004D408BFAA
:106D2000BBF1670F01D1012020636168C1F30A50F4
:106D300040F2FF7290421CD1080304BF2068002873
:106D400009D10320A0619DF8380061381A2835D395
:106D50000FF2446108E00320A0619DF8380061381B
:106D60001A2828D30FF22861E068032200F0F4FB10
:106D7000C3E1012815DA204600F0E1FC012810DB10
:106D800000250020BBF1610F1FD1E16830220A709D
:106D90008A1CE2609DF83820612A0CBF78225822B4
:106DA0000FE0626840F2FE3161F31E52451A6260E4
:106DB0004FF0FF30E6E70FF2D451D5E70FF2D45190
:106DC000D2E74A706169891C616110B9002600250B
:106DD0008AE1BBF1610F40F09880206BD4E900ABF1
:106DE00000284CBF2126461CDDE9020100220023B9
:106DF00000F0C8FC36B23ABF8BF00040CDE902A0EB
:106E0000CDE902AB06F101082D1FB8F1010F8DF895
:106E100010200DF1110736DBDDE90201002200230D
:106E200000F0C8FC2FD21C2102A800F0DBFCDDE939
:106E3000020100F061FDA8F10708B8F1010F8146D9
:106E400009DB00F085FD02460B46DDE9020100F09A
:106E500097FDCDE90201F81D072105E009F00F02B9
:106E600000F8012D4FEA2919B9F1010F01DB491E84
:106E7000F4D5491E5CBF002200F8012DF9D5C71DCD
:106E8000B8F1010FC8DA0DF11100391AB142B8BFDB
:106E90000E4636B230000DF111072FD4884206DAC3
:106EA00004A9014449780829A8BF0F2100DA00216C
:106EB00004AA024400E0761E12F80139401E8B42FB
:106EC000F9D00F2904D104A901444A78521C4A7010
:106ED000002802D504AF761C2D1D36B2701E0DD4CD
:106EE00039180A783032D2B23A2A03DB9DF83830AA
:106EF0003A3B9A18401E01F80129F2D5206B002870
:106F000040F1F280701E2063EEE0DDE90201002214
:106F1000002300F037FC3CBF81F00041CDE90201C5
:106F20002DB247F2975068434D49DFF8389180FB06
:106F300001214D1305EBD5752DB2C5F1070ABAF144
:106F4000010F98461CDBDDE902675FEACA7007D5CE
:106F500042464B463046394600F0D2FD06460F46C3
:106F60004046494642464B464FEA6A0A00F0C8FD91
:106F7000BAF1000F80468946E7D1CDE9026724E0E7
:106F8000CAF1000A0026384F14E05FEACA7007D53C
:106F900042464B463046394600F0B2FD06460F46A3
:106FA0004046494642464B4600F0AAFD4FEA6A0A6F
:106FB00080468946BAF1000FE7D1DDE90201324689
:106FC0003B4600F06FFECDE90201BBF1660F216B7D
:106FD000DFF898900CBF05F10A0006204618142E21
:106FE000A8BF132630208DF810000DF11107012ED7
:106FF00040DBDDE9020100F095FC07F10801042205
:107000001B4FA0FB0773DB0803EB8307A0EB4700D4
:10701000303001F8010C164FA3FB0770C00800EBDD
:107020008007A3EB47033033521E01F8023DE7D13E
:10703000083E012E01F10807D9DBDDE9020100F06D
:1070400071FC00F08FFC02460B46DDE9020100F006
:1070500097FC00224B4600F053FDCDE90201C8E742
:1070600089B5F814000024400000F03F84D7974110
:10707000CDCCCCCC0DF11100381A0DF1110702E086
:10708000401E6D1E7F1C39783029F9D0BBF1660F88
:1070900008BF691C04D0BBF1650F0CBF01210021A2
:1070A000226B8E1836B2B042B8BF064636B23100F7
:1070B0001AD4814204DA785C3528A8BF392000DA76
:1070C00030207A18521E00E0761E12F80139491E4F
:1070D0008342F9D0392802D1785C401C78540029C9
:1070E00002D57F1E761C6D1C2DB29DF838100095C0
:1070F00033B23A46204600F003F80FB0BDE8F08FF7
:107100002DE9F04786B006468A4690461D4600F0B7
:1071100012FF012D406A376B90F8009002DA0125CA
:107120000FF278284AF02000BDF93840662808BFE1
:10713000641C12D0672878D114F1040F7BDBBC42A9
:1071400079DA96F83800641C000702D4BD42B8BF53
:107150002F4624B23F1B48BF002724B2F068B16914
:10716000012C23DA4A1C30234354012F03DA96F80A
:107170003800000703D5F06800F80290521CE7427F
:10718000B8BF7C4224B260427062E719AF42B2617C
:10719000B8BF3D46F068B3692DB2F5612A46414655
:1071A000184400F0D9F9781BB062BCE02246954241
:1071B000084416DA2A46414600F0CEF9B16969184A
:1071C000601B012FB161706203DA96F83800000786
:1071D00005D5F06800F80190F069401CF061B762D5
:1071E000A1E0414600F0B8F9B06920182D1B012F2D
:1071F00003DA96F83810090703D5F16801F8009012
:10720000401CB0612DB2AF42B8BF3D46F068B369D3
:107210002DB22A4608EB0401184400F09DF9B0692C
:107220002818B061781B70627DE0BAF1610F14D14B
:107230004FF0700A16E0BD4204DA96F838100907DC
:1072400058BF2F467F1E48BF0027BAF1670F14BFF3
:107250004FF0450A4FF0650A04E0BAF1410F08BF4C
:107260004FF0500AB169F368481CB061012F18F85B
:10727000012B5A5403DA96F83810090717D5F1682C
:10728000431CB36101F80090012F10DB6D1E2DB27D
:10729000AF42B8BF3D46F0682DB22A464146184479
:1072A00000F05AF9B0692818B061781B7062F06874
:1072B000B1690144200081F800A004D42B2048705B
:1072C00001F1020804E02D224A7001F10208644233
:1072D000002502AF08E00A22684600F045FE01984A
:1072E00007F8010B6D1C009C21B20129F3DA022D75
:1072F00006DA4AF02000652804BF302008F8010BA8
:107300004DB9302008F8010B07E06D1E02A8405D62
:10731000303008F8010B012DF7DAF068B169084444
:10732000A8EB0000F06196F8380000F01400102877
:107330000DD17069B1690818716A0818F1690818E7
:10734000B16A0818716B8842BCBF081A306206B077
:10735000BDE8F087F8B504460D4616461F460020E6
:1073600077B116F8011BA868A047A86030B1E86A99
:10737000401CE86200207F1EF3D1F2BD4FF0FF30C9
:10738000F2BD000000000000000000006E616E0011
:107390004E414E00696E6600494E46003000F8B519
:1073A00004460D4616461F4600F0E6FD3B463246B3
:1073B0002946204601B0BDE8F04000F0F4BD8268E7
:1073C000521C8260426832B10268531C0360117023
:1073D0004168491E416070470278C9B28A421AB1B9
:1073E0001CBF10F8012FF9E718BF00207047FEE717
:1073F00000F10103810704D010F8011B89B1810756
:10740000FAD10268B2F10131914311F0803F04BF1B
:1074100050F8042FF6E710F8011B11B110F8011B0A
:10742000FBE7C01A7047FEE7C9B2830706D0521EB9
:1074300022D310F8013B9942F7D11FE0083A13D349
:1074400002F1040241EA012141EA014150F8043B02
:10745000121F21BF4B40A3F1013C2CEA030C1CF08E
:10746000803FF3D0C9B2001F083210F8013B521E12
:1074700028BF91EA030FF8D818BF0120401E7047BB
:1074800080B500F079FD012002BDFEE770B505462C
:1074900005F10F00C408C046C046E400A54232D240
:1074A000082C04D2082402E0083000F091F82248A9
:1074B000026811000CD1011D0A6802B31368A342CF
:1074C00038BF111DF8D310E01D68A5420DD2191D5B
:1074D0000B68002BF8D11268011D00E0191D0B6824
:1074E00093420CD01D68A542F8D361B10D682A689B
:1074F000A2F10803A3420AD26A680A600FE000F012
:1075000075FD0028D0D1C046C046002070BD2B19A3
:107510000B60121B6E685E600B681A602C60096855
:1075200000291DBF4A68002A091D00210160C046CC
:10753000C04605F1080070BD40A8002070B50446A3
:107540000D46164600F018FD324629462046BDE895
:10755000704000F01BBDFEE762B38B0708D0521EDF
:1075600011F8013B00F8013B00F024808B07F6D1B5
:10757000830740F0208000BF103A07D330B4B1E851
:107580003810103AA0E83810F9D230BC530724BFA5
:10759000B1E80810A0E8081044BF51F8043B40F8D7
:1075A000043BD20724BF31F8022B20F8022B44BF42
:1075B0000B7803707047083A07D3B1E80810083A0F
:1075C00040F8043B40F804CBF7D25307E4E7FEE76A
:1075D00000B9704738B5A0F108042068082833D3F3
:1075E00010F0070F30D1C046C0461848416809B1B5
:1075F0008C4203D26160446017E019464B680BB1BE
:10760000A342FAD30B68CD18AC421BD3A54204D1D8
:107610002268D2180A600C4607E04A681AB123684B
:1076200023449A420ED362604C60616851B1226873
:10763000A3188B4206D100230360086880182060DD
:1076400048686060C046C04631BD000040A80020C8
:107650001B4213D1094236D12AB18446B0FBF2F065
:1076600002FB10C2704700F0D7BCFCD300220023FD
:1076700070470B000200002100207047904271EB20
:10768000030CF6D370B5B1FA81F4B3FA83F52C1B71
:10769000A340C4F1200532FA05F63343A2405FF05F
:1076A0000046E64002E05B085FEA3202841A71EBB2
:1076B000030524BF204629467641F4D302000B007F
:1076C0003000002170BD012ACFD970B5140C20D034
:1076D000B1FA81F4B2FA82F5C4F120046419B4F16C
:1076E0002006D6D3B2405FF00044F440002502E00B
:1076F00052085FEA3303C61A71EB020E24BF30460C
:10770000714664416D41F3D302000B002000290053
:1077100070BD0C46B1FBF2F102FB11452D0445EAA8
:107720001045B5FBF2F402FB145580B240EA054562
:10773000B5FBF2F002FB105240EA044070BD30B4D9
:10774000436803F000420121C3F313034360002B9D
:1077500004BF0368002B08D10DE00368DD0F45EA84
:10776000440444605B000360491E4468E302F4D5AE
:10777000C4F31303436043681A434260084630BCB5
:107780007047FEE74FF4001C1CEB410F94BF1CEB4D
:10779000430F09E041EA030C50EA4C0C52EA0C0C8E
:1077A00003D2994208BF9042704714BF8B42824275
:1077B0007047FEE74FF4001C1CEB410F94BF1CEB1D
:1077C000430F09E041EA030C50EA4C0C52EA0C0C5E
:1077D00003D28B4208BF8242704714BF9942904245
:1077E0007047FEE770B504460D466068C0F30A5066
:1077F00040F2FF71884207D16068000304BF20682F
:10780000002817D0022070BD20B92046FFF797FF4F
:10781000012866DA012D0FDB40F2FF71091A8D4253
:107820000AD3606800284CBF9FED2F0B9FED300BF3
:1078300084ED000B012070BD4142A942616806DA67
:107840006FF31E51401941EA0050606040E0401E55
:1078500063684519012205F1350062F31F5335288D
:1078600001F00041636003D361600020206070BDBF
:10787000002015F11F0F04DA206823600022203554
:1078800062606A4212D0401E25688041C2F1200326
:10789000C0439D4045EAD07025686668D54006FA29
:1078A00003F32B4323606368D340636062680A4339
:1078B000B0F1004F626003D80DD12078C0070AD51F
:1078C0002068401C2060206828B96068401C606007
:1078D0004FF0FF3070BD6068884204BF2068002808
:1078E000F6D1002070BD00BF000000000000F0FFD6
:1078F000000000000000F07FF446400D40EAC12087
:10790000490006D200F014F8004248BF6FF0004072
:10791000604700F00DF84FF0004188428CBF0846E8
:1079200040426047400D40EAC120490080F00D8090
:1079300040F00040490DA1F58061491C05D4D1F10A
:107940001F0154BFC840C01770474FF00000704778
:10795000010040F10980F446404200F005F851F082
:1079600000416047010000BF09D0B0FA80F18840B3
:10797000C91CC1F58461090501EBD02140057047A0
:10798000F0B44FF0004591EA030F44BF6B4000F0A4
:1079900045BB00BF841A71EB030604D26E40001B86
:1079A000B141121973414FF4001C1CEB410F34BF5D
:1079B0007CEB430684E00C0DA4EB1356362E7DDCE5
:1079C000012E43DC45EAC32343EA525312BFD202DD
:1079D00092025B08240545EAC12141EA5051D2EBED
:1079E000C020994125D407D1B0FA80F610FA06F1EB
:1079F00064D00020203608E0B1FA81F6B140C6F12B
:107A0000200220FA02F21143B0404FEAF474B4EBC2
:107A1000465434F001064FEA74040AD8D6F500162D
:107A2000760D04F00044F04061FA06F25040F14057
:107A30004840C00A40EA415021F0004128BF5FEAB7
:107A4000500550F1000044EBD12137E045EAC32353
:107A5000DB0A45EAC121C90AB6F120050EDD42EA7A
:107A60000242120CC5F1200603FA06F6EB4042EA88
:107A700006056D42984161F100010DE062FA06F5DC
:107A8000F240554063FA06FC82EA0C02F3405A4089
:107A90006D42904161EB030111F4801F05D1641E1A
:107AA000620502D06D004041494121F48011430834
:107AB00075F1004350F1000041EB0451F0BC7047F8
:107AC0001CEB410F15D223F0004352EA43060BD0C2
:107AD0004FEA4C0CBCEB410F04D80C0D661E342E43
:107AE000B7DDEBE7801A994150EA410608BF002153
:107AF000E4E708BF1CEB430F28BF6FF00001DDE790
:107B0000B0B581EA030C0CF0004C40F2FF7515EAA9
:107B100011541DBF15EA1357AC42AF4239E0E419C6
:107B200023EA455343F48013C90241F0004141EA7E
:107B3000505EC7021100A7FB020200284FF00000B0
:107B4000EEFB01204FF00001E3FB072118BF42F0DC
:107B50000102401800214941E3FB0E01A4F58064B5
:107B60000F0302D252004041494154F101046CDD3F
:107B7000470872F1004250F1000051EB0451A1F5A9
:107B800080115CBF41EA0C01B0BD4CEA05510020F8
:107B9000B0BD05EA1357AC4214BFAF4241E050EA12
:107BA000410E1CBF52EA430E02E061460020B0BD08
:107BB00024423C441BD15FEA070EF6D0090302BF02
:107BC00001460020AEF1140EB1FA81F7AEEB0704C6
:107BD00001FA07FE0C37C7F1200100FA07F7C84089
:107BE0004EEA000E23EA455343F48013A2E733F034
:107BF0000043B3FA83F704BFB2FA82FE77440B3F27
:107C0000E41BB7F1200E2FBF02FA0EF3BB40C7F101
:107C1000200E22FA0EFE38BF43EA0E03BA40641C5F
:107C200082E750EA410E14BF52EA430E6FF00001A2
:107C30004FF4001717EB430F8ABF194617EB410F9C
:107C4000B5E74CEA05510020B0BDD4F10104B4F110
:107C500020070FDAC4F12007520828BF42F00102C2
:107C600010FA07F501FA07F7E1BF2A43E04038436D
:107C7000E1400FE0352C98DCC7F1200452EA4002C5
:107C800020FA07F218BF42F0010231FA07F0A140D2
:107C90000A43002172F1004250F1000051EB0C0147
:107CA000B0BDFEE72DE9F04140F2FF7581EA030C1B
:107CB0000CF0004C15EA11541DBF15EA1357AC42E5
:107CC000AF42E9E0BC41C1F31301C3F31303801ACF
:107CD000994143F4801304D2641E40004941801846
:107CE0005941C90241EA5051B1FBF3F603FB1611A9
:107CF000A2FB0675D7EBC020A94102D2761E8018E0
:107D00005941C90241EA5051B1FBF3FE03FB1E1178
:107D1000A2FB0E75D7EBC020A94103D2AEF1010E34
:107D200080185941890241EA9051760546EA8E2E23
:107D3000B1FBF3F603FB1611A2FB0675D7EB80200F
:107D4000A94102D2761E80185941C90241EA505118
:107D50004EEA060EB1FBF3F603FB1611A2FB067505
:107D6000D7EBC020A94102D2761E80185941C90222
:107D700041EA5051B1FBF3F703FB1711A2FB0735A2
:107D8000D3EBC020A94167F100070CBF004247F0C8
:107D9000010766F3D5274FEA1E31B80814F5806451
:107DA00014DDBD0775F1004250EB0E5051EB04514C
:107DB00011F5801F5CBF41EA0C01BDE8F0814CF079
:107DC0007F6141F0E0410020BDE8F081BD076D0812
:107DD00040EA0E5041F48011D4F10104B4F12006C0
:107DE0000ADAC4F120060200E04001FA06F3E1409D
:107DF0001843B24015430EE0342C14DCC6F12004C5
:107E000045EA40056D0820FA06F2154321FA06F00E
:107E1000A1400D43002175F1004250F1000051EBEB
:107E20000C01BDE8F08100205FEA0C01BDE8F081A3
:107E3000CFB992185B41B3FA83F704BFB2FA82F666
:107E4000BF190B3FB7F120062FBF02FA06F3BB4064
:107E5000C7F1200622FA06F638BF3343BA401CB1F8
:107E6000E419641E2FE77F4231F00041B1FA81F43A
:107E700004BFB0FA80F6A4190B3CB4F120062FBF62
:107E800000FA06F1A140C4F1200620FA06F638BF38
:107E90003143A0403C1B16E7AC421ABF05EA13571A
:107EA000AF4214E050EA41061CBF52EA4306BFE766
:107EB00050EA4107304661461CBF41EA0551BDE822
:107EC000F08152EA430C08BFC143BDE8F0810020B5
:107ED0004FF4001616EB410F98BF16EB430F08BF87
:107EE00016EB410F24BFC14305E016EB430F0CBF57
:107EF00061464CEA0551BDE8F081FEE780B51348C4
:107F0000C046C0460FF24C020FF2440101604262CB
:107F100041600FF24402826381600FF24402C1604B
:107F20000161416181618162C16201634163C26338
:107F30000164416401BD10B50448C046C046044612
:107F4000206808B9FFF7DAFF204610BD9036002000
:107F5000000000002E00000066616C7365000000E8
:107F6000747275650000000091FBF2F303FB1211BF
:107F7000C0E900317047FEE780B5DFF80C00C0466D
:107F8000C046806902BD00002037002030B430B9FF
:107F90000FF24800D0E90045C2E900451BE001703E
:107FA000012030BC704730B431B90FF23800D0E94D
:107FB0000045C3E900450EE01AB930BC6FF001007E
:107FC000704708B10A7802800978481E804130BCA9
:107FD000C043C00F7047002030BC70470000000055
:107FE00000000000000000000000000007490868D1
:107FF00008B1002070470648C008C0000860054965
:10800000C908C900091A0160704700BF50A80020C4
:10801000A7570020A07700207047FEE7841A71EB75
:10802000030603D2001BB141121973414FF4001C27
:108030001CEB410F34BF7CEB430443E00C0DA4EB7D
:108040001356352E50DC45EAC323DB0A45EAC1212D
:10805000C912B6F120050DDD63FA05F6EB4086EA9C
:108060000305124218BF45F00105C01851F1000187
:108070000CD213E062FA06F5F2405540F3415A4043
:10808000B340F3405A408018594107D349085FEA8A
:1080900030005FEA350528BF45F0010501F5801184
:1080A000420875F1004250F1000041EB0451F0BC70
:1080B0004FF4001C1CEB410F38BF70470020090D26
:1080C000090570471CEB410F10D252EA43060BD052
:1080D000BCEB410F05D80C0DAB43661E342EB5DD4D
:1080E00002E0AB4380185941F0BC7047F0BC7047C8
:1080F000C01C30B480B240F2FE329042A8BF0920CA
:1081000023DADFF8F42C1478002394B91489558904
:1081100024182C19A4B2B4F5806F0ADA0B8003EB93
:10812000830102EB81014A8980184881002030BC1C
:108130007047147D01233CB9948BD58B24182C19DE
:10814000A4B2B4F5806FE9DB072030BC70470000B3
:1081500030B4DFF8A42C00EB800302EB830042680C
:108160000B684FF480501044002B0FBF08325A8820
:1081700003EB82020C3201E003F10C02824216D2C0
:10818000136813F1010F12D0538802EB830303F13C
:108190000C05A8420BD394884FF6FF75AC421CBF68
:1081A0001488002CE8D00A60012030BC704730BC35
:1081B000002070472DE9F041446822002CD0DFF800
:1081C0003C5CEE682346B34224BF2D699D4223D315
:1081D00014F0030201BFDFF8202C0589B2F84060DB
:1081E000B54219D10568A668B54215D1546800207A
:1081F0009C423EBF4FF480556419A34208D3926954
:1082000001209A423EBF4FF48054121993424AD241
:1082100008800120BDE8F08100220A8000234FF68B
:10822000FF744FF48055DFF8D02B0027D618002FAD
:10823000D6F804C00CEB05060FBF0CF10807B7F821
:1082400002C007EB8C070C3702E000BF0CF10C07F3
:10825000B74221D2D7F800C01CF1010F1CD0B7F8EB
:1082600002C007EB8C0C0CF10C08464514D3B7F890
:1082700004E0A6451CBFB7F800E0BEF1000FE5D052
:10828000BE68D0F800C06645D0D14760B2F8401053
:1082900001810120BDE8F0810E88761C0E80143328
:1082A000B6B2022EC1DB0020BDE8F0812DE9F04717
:1082B000DFF8448B044698F8480010B90220BDE866
:1082C000F087002A18BF002B1ED09888022851DAA8
:1082D0004FF6FF794FF4805A988800EB80054FEAFB
:1082E000850C18F80C50002D40F03F8008EB0C0670
:1082F00075681E6805EB0A0E002E0FBF08357588DD
:1083000006EB85050C3505E00520BDE8F08700BFCC
:1083100007F10C05754526D22F6817F1010F22D001
:108320006F8805EB870707F10C06B6451BD3AE88AF
:108330004E451CBF2E88002EEAD01D60002C1EBFAB
:10834000AE882788BE42D1D100291EBF2E880F8853
:10835000BE42CBD1A86810605560B8F840001081CB
:108360000020BDE8F08700251D60401C988080B289
:108370000228B1DB0A20BDE8F08700002DE9F04FAC
:108380000321002000270022002388464FF6FF79B2
:10839000DFF864AADFF8644AE46814EB030C26D023
:1083A000DCF80050DFF84C4BA54220D1DCF804503B
:1083B000DFF8444B2C1B5BD0641E18D162B107EB75
:1083C00087050AEB8504022525707F1CDAF85050DA
:1083D0006560BFB2022525810224AAF85440CAF87C
:1083E00050C00CF1080E4FF48054A444A6E04FF0A6
:1083F000000E6446256815F1010F04BF656815F18C
:10840000010F20D1A56815F1010F04BFE56815F132
:10841000010F18D10EF1040E1034BEF5806FE9D3B0
:10842000DAF85040DCB107EB87050AEB850402253A
:108430002570C4F804C02581AAF83A7040F0010004
:108440007F1CBFB290E007EB87050AEB850403258C
:10845000C4F804C07F1C491E2570BFB284E002220C
:10846000AAF85420CAF850C0012240F001007BE075
:1084700007EB87050AEB850400252570C4F804C0C6
:1084800004F1100E022524F8085F4FF480560CF119
:108490000805B44417E0AE884E451CBF2E88002E58
:1084A0002CD0AE68DAF874B0B34538BFCAF874603F
:1084B000B5F802B026880BF1030B5E4426806E8867
:1084C00005EB86050C35654513D22E6816F1010FB4
:1084D0000FD06E8805EB86060C36B445DBD202263B
:1084E0004FF0010B022E8EF800B0E1D14FF4806501
:1084F00025807F1C40F00200BFB235E00126EFE787
:10850000BEF804404C451CBFBEF80040002C07D00C
:10851000DEF80840DAF87450A54238BFCAF8744053
:10852000BEF80250BAF85440ED1C2C19AAF8544079
:10853000BEF802400EEB840404F10C0EE64520D296
:10854000DEF8004014F1010F1BD0BEF802400EEB24
:1085500084040C34A445D3D24FF48064AAF8544068
:108560004FF0080C4CEA0000B8F1010803F5805305
:108570007FF410AF89B20229B8BF0020C0B2BDE8B5
:10858000F08FBAF85440022CEAD14FF0040CE9E71E
:10859000DFF8641810B4488F00EB800201EB82040E
:1085A00081B0E268DFF8540832B9042281F838203B
:1085B00000236168012208E0052281F838200023A9
:1085C0000222A1F854200122096D01B010BC00F074
:1085D000EEBD0000DFF8200890F8381007293BD8DE
:1085E000DFE801F0043A3A1A24353537B0F8401084
:1085F0000278491CA0F840100021418780F84410FF
:10860000511E8941C90F80F84210027D511E8941D7
:10861000C90F80F843101CE0C26B5288B0F85410A8
:10862000D21C5118A0F85410022113E0428F016DA2
:1086300002EB820300EB8302536803655160B0F8DC
:10864000541011810221A0F85410062102E00721E4
:1086500000E0012180F838107047000010B5024694
:1086600082B00F2032B1DFF890170020C86402B04A
:10867000012010BD0A79032A5DD8DFE802F0020D5F
:108680002F3E012008710823002000900FF21C32B9
:10869000DFF86407016D10E0DFF85C472178002007
:1086A00002290FD100EB80018800002121540091A4
:1086B0002044082341680FF2EC22DFF8400700F065
:1086C00048FD38E0217D01200229EBD084F84800E4
:1086D0000020E06402B041F61D5010BD002008717A
:1086E0000220DFF81447216DA4F854000023012272
:1086F000DFF8080700F05BFD1DE000200871009026
:108700000823DFF8F4460FF29C22216DDFF8EC0617
:1087100000F01FFD618F226D01EB810304EB8301EB
:108720004B6823654A60B4F854200A810222A4F8F9
:10873000542000220A7020B10020DFF8BC16C86463
:108740000E2002B010BD0000F0B50C4681B0A18A29
:10875000DFF8A46601EB8102A17D06EB820570B112
:10876000032904DBE1882889C91C08182881688945
:10877000E188401AC01E688101B00120F0BD686820
:108780002A89062900EB820763D8DFE801F012325C
:108790001A2804455F000020706606F16C01A0698C
:1087A000306606F16000FFF705FD10B90A2001B040
:1087B000F0BD0220A075042300200090221D394640
:1087C00023E02069002814BF03200120A0750423A2
:1087D0000020009004F10C0207F1080115E00120CF
:1087E000A07507F10C0100200090E0882269830049
:1087F0000BE0207803280CBF05200620A075042379
:108800000020009004F10802391DDFF8F00500F0A7
:10881000A0FC80B901B0F0BD0620A075002000903A
:10882000B6F86C70716E0FF6F002DFF8D005042315
:1088300000F08FFC08B10E200CE007EB870106EB7F
:1088400081010120087401B00020F0BD41F61D50E7
:1088500003E00F20A17D032904DBE2882989D21CD3
:10886000511829816989E288891AC91E698101B074
:10887000F0BD000010B582B010B1012002B010BDF3
:10888000DFF8744594F8440000281ABF002084F8EB
:108890004400FFF79FFE94F83800401E062800F2BF
:1088A0007D80DFE800F0043B515E7B626E0094F84F
:1088B0004210002029B184F84200E16809B9217C06
:1088C00059B994F84310012079B1002184F843107C
:1088D000216A51B994F8241039B1608704F13C0140
:1088E000608FFFF735FC48B93BE0002084F8380082
:1088F0006087E06302B041F61D5010BDE26B508806
:10890000032184F83810C01C002100910004830B5F
:10891000206DB4F8541000EB810139E0608F04F150
:108920003C01FFF715FCE0B1E26B5088032184F8AD
:108930003810C01C002100910004830B206DB4F896
:10894000541000EB810123E0E26BB4F854100020D6
:1089500000905088C01C0004830B206D00EB810147
:1089600016E002B0BDE8104012E600200090082397
:10897000608F0FF2300200EB800104EB8100416850
:1089800006E00020216D0FF22402E063009008232E
:10899000DFF8680400F0DDFB02B010BD0F2002B06C
:1089A00010BD0000DEC0ADDEFE011EF1DEC0ADDE9A
:1089B000FF011EF12DE9F04F85B004460FF25C79FE
:1089C000DFF838A40FF2507B0FF25C75DFF82864F3
:1089D00041F61D58B06F40B94FF48E7031184FF406
:1089E0008670301800F072FCB067B16F0878401ED6
:1089F000052800F27B80DFE800F0031414181875D6
:108A00002046FFF72BFE0446002C00F0E680B5E878
:108A10000E506846143DA0E80E5044456DD1002428
:108A20006BE02046FFF790FEEDE70F460CB1012406
:108A30005DE0387960B3022802D003D30F24E3E766
:108A40004446E1E706F1580301AA0021B81DFFF7EB
:108A50002DFC040013D100200090B6F85C70029940
:108A600004235A46504600F074FB08B10E240BE074
:108A700007EB870106EB81010120087404E006F191
:108A800058000021C0E900110A2CBDD14446BBE7C3
:108A90000220387102A8B9E80E000EC0F8680290F2
:108AA00001A902A8FFF786FBA9F10C09C0B103993F
:108AB0008888F880042308883881002000905A466E
:108AC000BDF80440504600F044FB08B10E249BE77B
:108AD00004EB840106EB810101200874002493E774
:108AE0000A2491E72046FFF7C5FE8CE70F24B5E87E
:108AF0000E506846143DA0E80E500194B06F017806
:108B0000491E052942D8DFE801F03E2F1C1005035D
:108B1000052039E004218DF80010C088ADF80C0064
:108B20000020ADF80E00029030E003218DF8001017
:108B3000C188ADF80C100189ADF80E10C068029024
:108B400024E002218DF800100189ADF80C10818815
:108B5000ADF80E10C1680291807D062814BF002078
:108B600001208DF8100011E001218DF8001001891D
:108B7000ADF80C108188ADF80E10C068029000208E
:108B80008DF8100002E000208DF80000B16A0800A6
:108B90001CBF68468847F16A08001CBF68468847C2
:108BA000316B08001CBF68468847716B08001CBF0A
:108BB000684688470020B06700244FF48E70311853
:108BC0004FF48670301800F0ADFB012106F17C00F7
:108BD00000F00AFC00287FF4FDAE05B0BDE8F08F80
:108BE0004068E7E600B5DFF8202581B0116F042961
:108BF00008BF0C2009D0116F02EB810188620121AE
:108C000002F1700000F0E2FB002001B000BD0000A6
:108C100070B586B001A80021002200230EC006C056
:108C2000754C94F84800A8B1A16A08001CBF01A8BF
:108C30008847E16A08001CBF01A88847216B08002B
:108C40001CBF01A88847616B080000F0878001A85D
:108C5000884783E004F14C0000F0D4FB002840F08A
:108C60007D80D0F8F81F11F1010F04BFDFF89C04DC
:108C70000168DFF89C040268406811F1010F08BF29
:108C800002FB00F15D480161A1F54051C160002285
:108C9000DFF8801400F052FA002860D14FF486709B
:108CA0001C238C2204F18001204400F09FFAFFF77E
:108CB00065FB0628064622D8DFE800F004210421DF
:108CC000212107000B2006B070BD012084F8480068
:108CD0000020E064A16A08001CBF01A88847E16A7F
:108CE00008001CBF01A88847216B08001CBF01A811
:108CF0008847616B080031D001A888472EE04FF407
:108D000086706946204400F0A7FA05461C2100F051
:108D100087FB15B9082006B070BD761E01200A2E0B
:108D200028700DD8DFE806F0060C060C0B0C0B0CB7
:108D3000080A0800002002E0032000E00220287159
:108D40004FF486706946204400F0B0FA012104F126
:108D50007C0000F02DFB08B9FFF72CFE002006B0C8
:108D600070BD70B504000D4614BF002D052082B003
:108D70001AD06946FFF71EFAA8B1BDF80020DFF847
:108D80008803666802EB820300EB830001210C304C
:108D900000F01CFB2E6060680C3068600120A0723F
:108DA00002B0002070BD0A2002B070BD10B50400F2
:108DB00082B008BF05201CD06946FFF7FBF9B8B1A7
:108DC000BDF80010DFF8400301EB810200EB8200E8
:108DD000C16800291CBFA17A002906D0C168491EBC
:108DE000C1600020A07202B010BD062002B010BD0C
:108DF0000A2002B010BD000004A100208C37002022
:108E00002DE9F041DFF8008382B0044698F848006D
:108E10000D4618B9022002B0BDE8F0811DB9052049
:108E200002B0BDE8F08128884FF6FF7188421CBF70
:108E30006888002859D0287910F003001FD1AF6846
:108E40006946B8B2FFF754F900284FD14FF4867045
:108E500001A9404400F000FA06461C2100F0E0FAA7
:108E60008EB9BDF8000000EB800108EB810041895C
:108E7000C91BC91E4181082002B0BDE8F081032052
:108E800002B0BDE8F0810220307001210020B075F1
:108E9000BDF80000B0826868306108F1740000F02D
:108EA00095FAF06001A9288830816888B080F78041
:108EB000002070814FF48670404400F0F7F944B10F
:108EC00000206060F06820600020A072B8F84000C8
:108ED0002081012108F17C0000F06AFA08B9FFF74F
:108EE00069FD002002B0BDE8F081042002B0BDE8B9
:108EF000F0810000DEC0ADDEFE011EF12DE9F04183
:108F0000040082B00D4609D0DFF8FC8198F84800D3
:108F100018B9022002B0BDE8F0811DB9052002B0E9
:108F2000BDE8F08128884FF6FF7188421CBF688831
:108F300000285CD0287910F003001FD1AF68694683
:108F4000B8B2FFF7D5F8002852D14FF4867001A9C6
:108F5000404400F081F906461C2100F061FA8EB908
:108F6000BDF8000000EB800108EB81004189C91BBE
:108F7000C91E4181082002B0BDE8F081032002B083
:108F8000BDE8F0810320307001210020B075BDF8EC
:108F90000000B0826868306108F1740000F016FAD1
:108FA000F06001A9288830816888B080F7800420AB
:108FB000B0752068B061002070814FF48670404425
:108FC00000F074F9002060600121F068206000204A
:108FD000A072B8F84000208108F17C0000F0E8F9A8
:108FE00008B9FFF7E7FC002002B0BDE8F0810420DB
:108FF00002B0BDE8F08170B5434C82B0054694F8EC
:10900000480010B9022002B070BD4FF6FF708542D3
:1090100008BF042021D04FF486706946204400F038
:109020001BF906461C2100F0FBF916B9082002B016
:1090300070BD05203070F5800120307169464FF415
:109040008670204400F032F9012104F17C0000F028
:10905000AFF908B9FFF7AEFC002002B070BD30B523
:10906000294C81B094F8480010B9022001B030BDFD
:109070004FF486706946204400F0EEF805461C2146
:1090800000F0CEF915B9082001B030BD06202870D7
:1090900069464FF48670204400F008F994F83800CF
:1090A00010B1012084F84400012104F17C0000F09B
:1090B0007FF908B9FFF77EFC002001B030BD03B591
:1090C00081B002A901A8FFF7F1F803B000BD01B516
:1090D00013460A4669460020FFF7E8F801B000BDD4
:1090E00001B513460A4600216846FFF7DFF801B0D4
:1090F00000BD002818BF00290FBF052000680860C8
:10910000002070470000000004A10020141000108F
:1091100010000010D83603000000FFFF0000000020
:10912000000000000000000000000000000000003F
:10913000000000000000000000000000002818BF30
:10914000002901D10E2070470160114602681268A3
:10915000104770B5002814BF002A0E2082B024D01A
:10916000046814B9082002B070BD33B145686D6859
:10917000B3FBF5F605FB163515B1092002B070BD3D
:1091800011F0030F08BF12F003050DD1C568A94205
:1091900021BF05695E18761EB54205D3069D009570
:1091A000E468A04702B070BD102002B070BD70B579
:1091B00008B90E2070BD04680CB9082070BD0AB94A
:1091C000092070BD45682D686E1E31420BD1C668FE
:1091D000B14221BF066905FB02156D1EAE4202D3E6
:1091E0002469A04770BD102070BDFEE709B90E20AC
:1091F000704792FBF3FC03FB1C2CBCF1000F01D069
:109200000920704701608281002141608160C38133
:109210000020704781B050E8022FC188B2EB324F76
:109220004FF0000317BF92B241EA014142EA014107
:1092300004E04268B2EB324F08BF012340E802125B
:10924000002AE8D18DF800309DF80000002814BFF6
:109250000020112001B0704730B482B050E8015FA7
:10926000AAB2C3891A4483899A4228BFD21A0389B1
:109270009A4202BFBFF32F8F002407E0C2EA050223
:1092800040E80123002BE9D14FF0010401958DF84E
:109290000040019A0A609DF80020002A1DBF006866
:1092A00009884018002002B030BC70470A884988FD
:1092B0008A4209D150E8011FC1EA014140E8011288
:1092C000002AF7D1012070470020704730B482B0E7
:1092D00050E8025F1FFAA5F2C3889A4202BFBFF3AB
:1092E0002F8F00240DE0C3891A4483899A4228BF36
:1092F000D21AC5EA024240E80223002BE8D14FF01F
:10930000010401958DF80040019A0A609DF8002043
:10931000002A1DBF006849884018002002B030BCF8
:10932000704700000A8849888A4209D150E8021F24
:10933000C1EA214140E80212002AF7D1012070471A
:109340000020704710B450E8002F0C4640E800435E
:1093500093F0000FF7D110BC1046704710B450E8DE
:10936000002F42EA010440E8004393F0000FF6D1D9
:1093700010BC10467047000010B450E8004F44EA9B
:10938000010240E8002393F0000FF6D110BC104614
:109390007047000010B450E8004F04EA010240E8B2
:1093A000002393F0000FF6D110BC10467047000068
:1093B00010B450E8002F02EB010440E8004393F0A2
:1093C000000FF6D110BC10467047000010B450E8F2
:1093D000004F04EB010240E8002393F0000FF6D1A8
:1093E00010BC10467047000010B450E8004FA4EBCA
:1093F000010240E8002393F0000FF6D110BC1046A4
:109400007047000010B4012450E8001F41EA040333
:1094100040E8003292F0000FF6D110BC08467047C9
:10942000002200F005B8FEE762F30F2262F31F424C
:10943000401810F0030308D0C91A1FD3DB0748BF38
:1094400000F8012D28BF20F8022D130030B4144677
:109450001546103928BF20E93C00FAD8490728BF33
:1094600020E90C0048BF40F8042D890028BF20F8EF
:10947000022D48BF00F8012D30BC7047C91818BF35
:1094800000F8012DCB0728BF00F8012D7047FEE73B
:1094900070B584B004460D46002000906A46A98845
:1094A000D4F8780100F0FAFF18B161680A0018BF1B
:1094B00088470098002800F07D80D4F87C011321B3
:1094C000E0B1A27C130019D012F0030300F0058074
:1094D00030F8086B89195B1EFAD1920800F00E80F3
:1094E00030F8083BC91830F8083BC91830F8083B79
:1094F000C91830F8083BC918521EF1D1D4F88001C0
:10950000E0B194F87820130018D012F0030304D0CF
:1095100030F8086B89195B1EFAD1920800F00E80B2
:1095200030F8083BC91830F8083BC91830F8083B38
:10953000C91830F8083BC918521EF1D1D4F884017B
:10954000E0B194F8DE20130018D012F0030304D029
:1095500030F8086B89195B1EFAD1920800F00E8072
:1095600030F8083BC91830F8083BC91830F8083BF8
:10957000C91830F8083BC918521EF1D10098FFF7FE
:109580004FFF6089B0B1009901200870002101A847
:1095900001AAC0E900110120ADF80400ADF80610E1
:1095A000009802906189A888ACDF18B161680A0050
:1095B00018BF884704B070BD70B504460D4686B02C
:1095C000A988D4F878016A4600F068FF18B161688C
:1095D0000A0018BF8847009800B301A800210022A4
:1095E000002300264EC001208DF80400ADF80810BD
:1095F00001A9E889ADF80C000120ADF80E00009833
:1096000004909DF80A0040F001008DF80A00A88837
:10961000B0DF18B161680A0018BF884706B070BD96
:109620002DE9F0430D4687B00446E888B4F86E2172
:10963000904222D1A988D4F878016A4600F02EFF22
:1096400018B161680A0018BF88470098002800F028
:109650000482288A012840F00082A87C002818BFD4
:10966000012840F0FA818DF804000099A87C487028
:109670002068002800F0F181EAE16289904224D15B
:10968000A988D4F878016A4600F008FF18B161682B
:109690000A0018BF88470098002800F0DE81288A59
:1096A000012840F0DA81A87C20B1012840F0D58162
:1096B000062000E005208DF804000099A87C0870C1
:1096C0002068002800F0C981C2E1B4F8522190421C
:1096D00019D1288A022840F0C0812068002800F0B3
:1096E000BC8105F1120000F003FF002814BF022026
:1096F00003208DF8040042F62220ADF80800002077
:10970000ADF80A00A4E1B4F84E21904229D1A9880D
:10971000D4F878016A4600F0C1FE18B161680A0009
:1097200018BF88470098002800F097812A8AE889A6
:109730008018092880F29181009805F11201801C9F
:10974000FDF70AFF2068002800F0878104208DF8CB
:10975000040042F62220ADF808000020ADF80A000F
:109760006DE1B4F85621904229D1A988D4F8780146
:109770006A4600F093FE18B161680A0018BF884776
:109780000098002800F069812A8AE8898018022858
:1097900080F26381009805F112010A30FDF7DCFECA
:1097A0002068002800F0598104208DF8040042F65A
:1097B0003220ADF808000020ADF80A003FE1B4F80F
:1097C0006221904219D1288A022840F046812068FF
:1097D000002800F0428105F1120000F089FE002807
:1097E00014BF022003208DF8040042F63320ADF8A8
:1097F00008000020ADF80A002AE1B4F85E2190428A
:1098000029D1A988D4F878016A4600F047FE18B13A
:1098100061680A0018BF88470098002800F01D8181
:109820002A8AE8898018092880F21781009805F1B2
:1098300012010B30FDF790FE2068002800F00D812A
:1098400004208DF8040042F63320ADF80800002013
:10985000ADF80A00F3E0002700E07F1CA27CFBB219
:1098600093423CD2FFB207EB870604EB4606368BE9
:10987000B04223D07F1CFBB2934230D2FFB207EB41
:10988000870604EB4606368BB04217D07F1CFBB22E
:10989000934224D2FFB207EB870604EB4606368BD1
:1098A000B0420BD07F1CFBB2934218D2FFB207EB41
:1098B000870304EB43031B8B9842CED1288A0228EE
:1098C00040F0CB802068002800F0C78005F112002E
:1098D00000F00EFE002814BF0220032006E0D4F89A
:1098E0007C114FF0130871B3002110E08DF80400D3
:1098F0008DF80B7042F64D20ADF8080001208DF870
:109900000A00A5E032F83120491C9044C9B2A37C7A
:10991000994218DA01EB810704EB4707BF8AD4F8B4
:109920007C21B8420DD032F83160491CC9B299424D
:10993000B04408DA01EB810604EB4606B68AB04271
:10994000E0D1012651E0D4F8801129B3002104E0D0
:1099500032F83120491C9044C9B294F878309942C9
:109960001ADA01EB810704EB4707B7F87A70D4F8ED
:109970008021B8420ED032F83160491CC9B29942F8
:10998000B04409DA01EB810604EB4606B6F87A60CA
:10999000B042DDD1022628E0D4F8841100295CD041
:1099A000002104E032F83120491C9044C9B294F8F7
:1099B000DE30994251DA01EB810704EB4707B7F833
:1099C000E070D4F88421B8420ED032F83160491CDE
:1099D000C9B29942B04440DA01EB810604EB460675
:1099E000B6F8E060B042DDD103260F4632F8319080
:1099F000A988D4F878016A4600F050FD18B1616872
:109A00000A0018BF8847009838B32A8AE889801866
:109A1000814522DB00981FFA88F305F112011844F2
:109A2000FDF79AFD2068C0B104208DF804008DF880
:109A30000A6042F64D20ADF808008DF80B70E889F9
:109A4000ADF80C00288AADF80E0005F11200049064
:109A5000059501A922682046904707B0BDE8F0832C
:109A60002DE9F0430D468BB00446A879012840F05B
:109A70009B8128896289904205D12046FFF79CFD91
:109A80000BB0BDE8F083B4F84E21904240D1A988D4
:109A9000D4F878016A4600F001FD18B161680A0047
:109AA00018BF88470098002800F07E81E88901A946
:109AB0000022002300260027CCC101218DF80410CC
:109AC000ADF80C00C0F10801ADF80E10ADF808209B
:109AD00000990844801C049001A99DF80A0040F0F8
:109AE00001008DF80A00A888B0DF18B161680A008B
:109AF00018BF88472068002800F0568107208DF89D
:109B00001400ADF81A6042F62220ADF8180046E1C4
:109B1000B4F85621904240D1A988D4F878016A4619
:109B200000F0BCFC18B161680A0018BF88470098B3
:109B3000002800F03981E88901A9002200230026CD
:109B40000027CCC101218DF80410ADF80C00C0F144
:109B50000101ADF80E10ADF80820009908440A3054
:109B6000049001A99DF80A0040F001008DF80A0058
:109B7000A888B0DF18B161680A0018BF884720685C
:109B8000002800F0118107208DF81400ADF81A604C
:109B900042F63220ADF8180001E1B4F85E2190429F
:109BA00040D1A988D4F878016A4600F077FC18B152
:109BB00061680A0018BF88470098002800F0F48008
:109BC000E88901A90022002300260027CCC1012139
:109BD0008DF80410ADF80C00C0F10801ADF80E10BE
:109BE000ADF80820009908440B30049001A99DF8B5
:109BF0000A0040F001008DF80A00A888B0DF18B113
:109C000061680A0018BF88472068002800F0CC80EF
:109C100007208DF81400ADF81A6042F63320ADF835
:109C20001800BCE0D4F87C11132611B3002104E025
:109C300032F83120491C9619C9B2A37C994218DA2E
:109C400001EB810704EB4707BF8AD4F87C21B842B7
:109C50000DD032F83170491CBE19C9B2994208DAE8
:109C600001EB810704EB4707BF8AB842E0D1012727
:109C700051E0D4F8801129B3002104E032F83120FA
:109C8000491C9619C9B294F8783099421ADA01EB56
:109C9000810704EB4707B7F87A70D4F88021B842FF
:109CA0000ED032F83170491CBE19C9B2994209DA96
:109CB00001EB810704EB4707B7F87A70B842DDD1B2
:109CC000022728E0D4F8841100296DD0002104E097
:109CD00032F83120491C9619C9B294F8DE30994205
:109CE00062DA01EB810704EB4707B7F8E070D4F8BC
:109CF0008421B8420ED032F83170491CBE19C9B265
:109D0000994251DA01EB810704EB4707B7F8E0709D
:109D1000B842DDD10327884632F83190A988D4F8BB
:109D200078016A4600F0BAFB18B161680A0018BFF2
:109D300088470098002837D0E88901A9002200232D
:109D400094469646A1E80C5001218DF80410ADF818
:109D50000C00A9EB0001ADF80E10B6B20099ADF8F9
:109D6000082031440844049001A99DF80A0040F0FD
:109D700001008DF80A00A888B0DF18B161680A00F8
:109D800018BF8847206878B107208DF814008DF837
:109D90001A7042F64D20ADF818008DF81B80099519
:109DA00005A92268204690470BB0BDE8F0830A461B
:109DB0000188102904D0502906D0512907D07047B6
:109DC00001461046FFF764BB0146104628E40146F1
:109DD000104645E6F0B58FB01C4606AB00250026C0
:109DE0000027AC46A3E8E010A3E8E01042F64D23BC
:109DF000ADF81830ADF81C200978149D159E8DF82B
:109E00002510324629788DF8291069788DF82A10A6
:109E1000A9788DF82B1001218DF824108DF82710CA
:109E200006A9008900F07AFBF8B901A800210022F8
:109E300000230EC006C042F60810ADF8040021460B
:109E400028788DF80A0068788DF80B00684600F0D5
:109E500053FBADF80E00ADF81200CDF814D006F1AA
:109E60000802308801A900F073FC0FB0F0BDF0B516
:109E700093B004460D4606A80021002200230026C8
:109E80004EC04EC042F64B20ADF8180006A9A88C73
:109E9000ADF81C00A88CADF81E00286A08909DF84B
:109EA000250040F002008DF8250095F82C008DF873
:109EB000290001208DF824004FF4A2702218208977
:109EC00000F02CFB002838D195F8260020B1A86AB4
:109ED00010B9072013B0F0BD002742F6071600E0C6
:109EE0007F1C95F82600874226DAA86A0EAA6946E2
:109EF00000EB870064DF00BB01A8002100220023E3
:109F00000EC006C0ADF8046001A995F82C008DF8CC
:109F10000A009DF80000ADF80E00ADF812000EA882
:109F200005904FF4A6702218B4F8440100F010FC1C
:109F30000028D5D013B0F0BD002013B0F0BDF0B5AF
:109F400004000D4614BF002D0E208DB000F01082CD
:109F5000A87A0B28BFBF287C0B28287E0B2802DBA1
:109F600007200DB0F0BD2868206004F10802686881
:109F7000606003A9A87AA074287C84F87800287E01
:109F800084F8DE0001208DF80E0041F61200ADF8D5
:109F90000C000120A8DF002840F0EA8100236A4677
:109FA00000E05B1C95F83610D8B2884209D2A86B45
:109FB000DBB230F813102089A9DF0028F1D00DB0F2
:109FC000F0BD287A002804BF687A002830D095F8C0
:109FD0003D0095F83C1001228DF80020002304AAD2
:109FE000002600279C46A2E8C810A2E8C81042F646
:109FF0004E22ADF810208DF822000122ADF8142079
:10A00000ADF8162001209DF81D208DF81F0042F0AC
:10A010000602CDF818D08DF81D208DF8211004F11E
:10A020000A02208904A900F079FA002840F0A081F2
:10A03000A87A00281CBFE868002834D0002601E078
:10A04000761CF6B2A87A86422DDAE86800EBC607DD
:10A05000012102A800F0EEFB9DF8080040F002008C
:10A060008DF808007979481E80419DF80810C0439A
:10A07000C00F01F0F70141EAC00040F010008DF878
:10A080000800BB1C06EB860004EB40001430019076
:10A0900002A9381D009020463A88FFF79BFE002851
:10A0A000CED00DB0F0BD287C00281CBF6869002808
:10A0B00025D0002601E0761CF6B2287C86421EDA06
:10A0C000686900EBC607012102A800F0B3FB9DF808
:10A0D000080040F00E008DF80800BB1C06EB86005F
:10A0E00004EB40007A30019002A9381D0090204610
:10A0F0003A88FFF76FFE0028DDD00DB0F0BD287E56
:10A1000000281CBFE869002825D0002601E0761C45
:10A11000F6B2287E86421EDAE86900EBC607012106
:10A1200002A800F087FB9DF8080040F00A008DF8B7
:10A130000800BB1C06EB860004EB4000E0300190F9
:10A1400002A9381D009020463A88FFF743FE0028F8
:10A15000DDD00DB0F0BD29462046FFF788FE00286F
:10A1600040F00681287A002862D004A8002100224D
:10A17000002300264EC04EC042F62220ADF810004B
:10A180000820ADF814009DF81D0040F002008DF885
:10A190001D0000F0F70095F84320511E8941C94386
:10A1A000C90F40EAC10040F010008DF81D0004A95D
:10A1B00095F842008DF8210095F843008DF82200B3
:10A1C00095F844008DF8230001208DF81F004FF40E
:10A1D000A7702218208900F0A1F9002840F0C8805B
:10A1E00004A80021002200234EC04EC042F63220B7
:10A1F000ADF8100004A90120ADF814009DF81D0071
:10A2000040F00E008DF81D0095F845008DF82100F6
:10A2100095F846008DF8220001208DF81F004FF4BC
:10A22000AB702218208900F079F9002840F0A08056
:10A23000687A002839D004A80021002200230026D3
:10A240004EC04EC042F63320ADF810000820ADF8E5
:10A2500014009DF81D0040F002008DF81D0000F074
:10A26000F70095F84020511E8941C943C90F40EAC3
:10A27000C10040F010008DF81D0004A995F83F00C2
:10A280008DF8210095F840008DF8220095F84100E6
:10A290008DF8230001208DF81F004FF4AF702218B5
:10A2A000208900F03BF9002862D1288E8DF800004B
:10A2B0000021000A8DF80100002295F832008DF887
:10A2C0000200002395F833008DF80300002604A84F
:10A2D0004EC04EC042F64A20ADF8100004A904203A
:10A2E000ADF814009DF81D0040F002008DF81D002F
:10A2F00095F834008DF82100CDF818D00420ADF881
:10A3000016004FF4B3702218208900F007F978BBCB
:10A3100095F83E008DF8006004A900220023002774
:10A32000CCC1CCC142F64C21ADF810108DF8220002
:10A330000121ADF8141001209DF81D10ADF8160094
:10A3400041F004014FF4B7708DF81D10CDF818D00E
:10A350002218208904A900F0E1F848B9E868C4F897
:10A360007C016869C4F88001E869C4F884010020B0
:10A370000DB0F0BD2DE9F04F05001F4614BF002FB2
:10A380000E2087B08B46164600F08580A97C8B4551
:10A3900080F08080D84608EB880005EB400000F193
:10A3A0001409109C4FF6FF7084426FD0ADF8046022
:10A3B0006A46D5F87801214600F070F800284FF081
:10A3C000000A68D100981330BBF1000F009034D020
:10A3D0001BF0030000F00D80D5F87C2100995FFA96
:10A3E0008AFA32F83A201144401E00910AF1010A1B
:10A3F000F2D15FEA9B0020D0D5F87C11009A5FFA79
:10A400008AFA31F83A301A4400920AF10102D2B2C3
:10A41000009B31F832C06344521C0093D2B231F831
:10A4200032C06344521C0093D2B231F83210194446
:10A43000401E009102F1010ADED1D5F87C0130F80E
:10A440003800B0421ED3009832463946FDF784F8F2
:10A4500002A800210022002300252EC0B9F8000028
:10A46000ADF80800ADF80C1001208DF80A00059732
:10A4700001A8049002A92046AEDF60B904990988BA
:10A48000B14208D00C2007B0BDE8F08F082007B01B
:10A49000BDE8F08F072007B0BDE8F08F30B5044667
:10A4A00081B0084615001EBF00212960002C01D094
:10A4B000216811B90E2001B030BDE1888A08B1EBE6
:10A4C000820118BF072011D100F0AFFAC0B21428E2
:10A4D00008BF05200AD021798842A8BF042005DAE8
:10A4E000E2882168504308442860002001B030BD54
:10A4F000007800F0010070470A78027049784170D6
:10A500000220704730B504460D4681B02846FCF75E
:10A510006FFF2080656001B030BD0000F0B50D46D2
:10A5200091B00446A878010008BF01208DF80E0004
:10A5300016462888ADF80C00032101A800F07AF92E
:10A54000687C401E002104288DF804100FD8DFE835
:10A5500000F00B0907050300222006E0122004E0AA
:10A56000312002E0212000E011208DF80400A87CB9
:10A570008DF80510401E04280FD8DFE800F00B0905
:10A5800007050300222006E0122004E0312002E04B
:10A59000212000E011208DF805009DF80600E97BE0
:10A5A00000F0F70040EAC1008DF8060000F0EF006F
:10A5B000297C40EA01108DF8060000F0FE00297B9E
:10A5C00008438DF8060000F0F900297D002914BF2A
:10A5D0000221012140EA41008DF80600002109A86E
:10A5E0000022002300278EC00EC0687B3021084265
:10A5F00026D0032102A800F01DF9E87C8DF809702F
:10A60000401E04280FD8DFE800F00B0907050300FF
:10A61000222006E0122004E0312002E0212000E0A8
:10A6200011208DF8090011208DF808009DF80A000E
:10A6300000F0F90040F002008DF80A0002A80E9028
:10A640000021687B8DF824000022A87B8DF825006E
:10A65000002304A80EC006C003A8049001A805901A
:10A66000A888ADF81C00A86818B1E988ADF81810E2
:10A670000890AF69002F60D00321684600F0DAF837
:10A680003888ADF82C0000217888ADF82E00786865
:10A690000A90CDF834D0387B8DF80010401E042885
:10A6A0000FD8DFE800F00B0907050300222006E0C1
:10A6B000122004E0312002E0212000E011208DF87A
:10A6C0000000A869407B8DF80110401E04280FD8B7
:10A6D000DFE800F00B0907050300222006E0122046
:10A6E00004E0312002E0212000E011208DF801007B
:10A6F000A8699DF80210807A01F0F70141EAC000D4
:10A700008DF8020000F0EF00A969C97A40EA011053
:10A710008DF8020000F0FE00A969097A08438DF85F
:10A72000020000F0F900A969897B002914BF022109
:10A73000012140EA41008DF80200E86900B10C9067
:10A74000334604AA09A92046AADF11B0F0BD0000D3
:10A7500070B487B002AB00240025002670C330C35C
:10A760008B781C0008BF01238DF806300B88ADF8EC
:10A77000043001AB02938B798DF800505B1E042BE3
:10A780000FD8DFE803F00B0907050300222306E0DA
:10A79000122304E0312302E0212300E011238DF88D
:10A7A0000030CB798DF801505B1E042B0FD8DFE809
:10A7B00003F00B0907050300222306E0122304E03F
:10A7C000312302E0212300E011238DF801309DF8B0
:10A7D0000230CC7803F0F70343EAC4038DF802306B
:10A7E00003F0EF030C7943EA04138DF8023003F011
:10A7F000FE034C7923438DF8023003F0F9030C7A01
:10A80000CDF80CD0002C14BF0224012443EA4403E9
:10A810008DF802304B89ADF810308B89ADF81230CD
:10A82000CB89ADF814300969069102A9ABDF07B0F6
:10A8300070BC7047002200F07DB9FEE72DE9F04FB3
:10A84000044699B02088A588102806D011285ED02B
:10A850001A2860D019B0BDE8F08FDFF8C462B06884
:10A86000C043019001A87168FEF794FD0198009023
:10A8700000200290009880B100273946684600F019
:10A8800096F938B1029902A800EB4100878002983E
:10A89000401C02907F1C142FEFD302A9B1E88C5109
:10A8A0000DA8A0E88C51B1E88C50A0E88C500D9810
:10A8B000A8B10EAF4FEA0008B7F8009006F1040AFD
:10A8C0004FF01D0B4946504600F066F9BBF1010BF5
:10A8D0000AF1040AF6D1BF1CB8F10108ECD1142D1D
:10A8E00005DB042000F09CF919B0BDE8F08F294683
:10A8F00006F1080000F037F92946301D00F033F961
:10A90000E07B01282CD0294606F10C0017E02946EF
:10A91000DFF8100222E0207A0009022814DB032865
:10A92000DFF8FC61ACBF01240024294606F11000C9
:10A9300000F019F9002C294606F114000ED000F0A1
:10A9400012F919B0BDE8F08FDFF8D461294606F19D
:10A95000100000F021F9294606F1140000F01CF95E
:10A9600019B0BDE8F08F142801DB002070470146C4
:10A97000DFF8B40100F01BB970B504460025142CB3
:10A980000FDADFF89C612146301D00F010F940B16C
:10A99000214606F10C0000F00AF9002814BF022538
:10A9A0000125284670BD70B504460025142C0EDA2A
:10A9B0005B4E2146301D00F0FAF840B1214606F109
:10A9C000080000F0F4F8002814BF022501252846ED
:10A9D00070BD30B50446142C81B00DDA504D2146BF
:10A9E000281D00F0E4F838B1214605F1100001B04F
:10A9F000BDE8304000F0DBB8002001B030BD30B51C
:10AA00000446142C81B00DDA454D2146281D00F076
:10AA1000CEF838B1214605F1140001B0BDE8304050
:10AA200000F0C5B8002001B030BD10B50446142CAC
:10AA300006DA21463C4800F0BAF808B1204610BDBD
:10AA4000142010BD00B581B01821354800F0B8F8C9
:10AA5000182818BFC0B201B000BD70B50446304E12
:10AA60000D46304600F0A3F870B1142C0CDA2146E4
:10AA7000301D00F09CF838B1214606EB8500BDE89A
:10AA80007040183000F093B8002070BDF0B5044657
:10AA9000234F81B00D461646384600F088F8B8B10D
:10AAA000142C15DA2146381D00F081F880B1002EF3
:10AAB00007EB8500214605D001B0BDE8F040183015
:10AAC00000F051B801B0BDE8F040183000F064B8B3
:10AAD00001B0F0BDF0B506460C46114F81B01546E9
:10AAE0003146384600F063F8C0B107EB8600806954
:10AAF0000090200008BF00260FD00098002660B10B
:10AB000000273946684600F052F818B12946B8B215
:10AB1000A047761C7F1C142FF3D3304601B0F0BD44
:10AB200020A5002028A5002024A5002062F30F22E4
:10AB300062F31F4200B500BF1300964694461039D9
:10AB400028BFA0E80C50FAD85FEA417C28BF0CC0AF
:10AB500048BF40F8042BC90728BF20F8022B48BF84
:10AB600000F8012B00BD0A46012102F01F03520923
:10AB7000994000EB8200FEF7FFBB10B50A4602F0D9
:10AB80001F0401215209A14000EB8200FEF7E6FB01
:10AB9000E04000F0010010BD0A46012102F01F0351
:10ABA00099405209C94300EB8200FEF7F3BB4A0902
:10ABB00050F8220001F01F01C84000F0010070476A
:10ABC0002DE9F04D80460D46681E00264009471CC1
:10ABD00022D044462068C04390FAA0F0B0FA80F03A
:10ABE00020283CBF00EB461AAA4511D20AF01F0BE1
:10ABF000012000FA0BF14FEA5A1008EB8000FEF733
:10AC0000ADFB20FA0BF0C007E4D45046BDE8F08D50
:10AC1000761C241DBE42DDD32846BDE8F08DFEE73C
:10AC200010B584B069460022002300241CC10290A4
:10AC30006A46002144F2010000F002F804B010BDA1
:10AC400072B60948D0F8E410C90700D500BEBFF3BA
:10AC50004F8F0168054A01F4E06111430160BFF3C1
:10AC60004F8F00BFFDE700BF0CED00E00400FA05C8
:10AC700080F830107047F0B504460D0014BF002C6A
:10AC80000E2081B000F0818095F87A0000281CBF6A
:10AC900095F8980000283BD1D5F8A00004281CBFE7
:10ACA000D5F89C00042833D005F178010020A0706D
:10ACB000201DB1E8CC50A0E8CC50B1E8CC10A0E801
:10ACC000CC10002084F830000721D5F8A400606380
:10ACD000D5F8A800A0634FF6FF70A4F848024FF41F
:10ACE0000D702044C4F8440204F24A20FEF798FB99
:10ACF000207810B9FF2084F8540004F15500C4F8FE
:10AD0000340294F82400002814BFEE201F2002E033
:10AD1000072001B0F0BDA4F8380204F155014FF44A
:10AD20000E702218284600F0B8FD70BB04F24310E4
:10AD3000C4F83C0294F82400D4F83C12002814BF54
:10AD4000EE201F20A4F840024FF41070221805F1E5
:10AD50003C0000F0A2FDC0B9012084F8510004F1CC
:10AD60003C02A069A4F848000021012084F83C00BE
:10AD70000020206484F850006069606404F154008D
:10AD800072DF10B901202070002001B0F0BD00007A
:10AD900030B5044681B020780D4610B9082001B0C6
:10ADA00030BDA570072104F24A20FEF739FBA079D7
:10ADB00010B1A078012806D0E07980B1A0780128F0
:10ADC00018BF02280BD1616B080005D0012084F860
:10ADD00051020820884702E0002084F8510294F8CC
:10ADE0004B02002804BF94F84C02002811D194F8BB
:10ADF0004D02002804BF94F84E02002809D194F8AF
:10AE00004F0230B994F85012481E8041C043C00F21
:10AE100000E001206D1E032D1AD8DFE805F0020CBA
:10AE20001115A17939B194F8241080F00102114371
:10AE300008BF01200DD0E179014218BF022008D1DE
:10AE4000207A08B1032004E0607A08B1042000E011
:10AE50000020A070616B080011D0A078032818BFF3
:10AE600004280CD1607950B194F8520238B984F8B2
:10AE70005402012084F853020720884702E0002092
:10AE800084F8530204F13C000021002200230EC08C
:10AE90000EC0012084F83C00E06A01281CBF022893
:10AEA000012084F8510094F82400010007D0E16AE1
:10AEB00001291ABF02290121A16A84F8521084F8DD
:10AEC0005020A17804295BD8DFE801F09C03132708
:10AED0006E00012084F83100C4F8442204F24A20B4
:10AEE00020646264022084F83C008020A4F84800BA
:10AEF00049E00221002814BF0720032084F83C0009
:10AF000084F83110C4F844222069A4F8480004F2FF
:10AF10004A202064E068606435E06169616400286B
:10AF200014BF0620012084F83C00A1696079A4F8D0
:10AF30004810E8B194F85202D0B994F85402B8B16C
:10AF4000022084F850000122B4F83812D4F83402F8
:10AF500000F0E0FD08B1042101704FF40D702118DC
:10AF600004F13C0204F1540072DF48B9052000E00E
:10AF7000032084F831004FF40D702044C4F84402DB
:10AF8000A078002840D0D4F8441204F13C0204F127
:10AF9000540072DF00283ED194F8301094F8540029
:10AFA00073DF88B301B030BDE1696164002814BF6C
:10AFB0000620012084F83C00216A6079A4F848103A
:10AFC000F0B194F85202D8B994F85402C0B10220FA
:10AFD00084F850000122B4F83812D4F8340200F09A
:10AFE00099FD08B1042101704FF40D70211804F18E
:10AFF0003C0204F1540072DF0028C1D10620B8E7FA
:10B000000420B6E784F83120616B08001CBF94F877
:10B0100031008847002001B030BD000010B50C465B
:10B020000188102905D011290BD0262900F0538161
:10B0300010BDC17B012940F068818088A4F84802D6
:10B0400010BD002184F852128088B4F8481288425A
:10B0500004BF2079002840F05881207808B90820E2
:10B060004DE10120A070072104F24A20FEF7D8F933
:10B07000A07910B1A078012806D0E07978B1A07845
:10B08000012818BF02280AD1606B30B1012084F872
:10B0900051020820616B884701E084F8510294F85E
:10B0A0004B02002804BF94F84C02002811D194F8F8
:10B0B0004D02002804BF94F84E02002809D194F8EC
:10B0C0004F0230B994F85012481E8041C043C00F5F
:10B0D00000E00120A17939B194F8241080F0010238
:10B0E000114308BF01200BD0E179014218BF0220B3
:10B0F00006D1207A08B1032002E0607A00B1042072
:10B10000A070606B90B1A078032818BF04280DD1FF
:10B11000607958B194F8520240B984F85402012081
:10B1200084F853020720616B884702E0002084F80E
:10B130005302182104F13C00FEF772F9012084F853
:10B140003C00E06A01281CBF0228012084F851005D
:10B1500094F8240038B1E06A01281ABF02280120BF
:10B16000A06A84F85200002084F85000A0780428D7
:10B1700000F29780DFE800F003846D3707000020BD
:10B1800084F831008DE0E0696064206AA4F848002A
:10B1900094F82400002814BF0620012084F83C0005
:10B1A0006079F0B194F85202D8B994F85402C0B161
:10B1B000022084F850000122B4F83812D4F8340286
:10B1C00000F0A8FC08B1042101704FF40D702118A3
:10B1D00004F13C0204F1540072DF002861D1062022
:10B1E0002FE004202DE060696064A069A4F84800A5
:10B1F00094F82400002814BF0620012084F83C00A5
:10B200006079E8B194F85202D0B994F85402B8B118
:10B21000022084F850000122B4F83812D4F8340225
:10B2200000F078FC08B1042101704FF40D70211872
:10B2300004F13C0204F1540072DF90BB052000E0F1
:10B24000032084F831004FF40D702044C4F8440208
:10B2500027E0022084F8310094F82400002814BF6D
:10B260000720032084F83C002069A4F8480000204F
:10B27000C4F8440204F24A202064E068606410E0EC
:10B28000012084F831000020C4F8440204F24A206E
:10B29000206400206064022084F83C008020A4F830
:10B2A0004800A07878B1D4F8441204F13C0204F1CB
:10B2B000540072DF28B994F8301094F8540073DF0A
:10B2C00008B1E0B910BD616B08001ED094F83100E0
:10B2D000BDE810400847007A012818BF022814D1A1
:10B2E000A078401C81B24CF6CD424A43910C01EB50
:10B2F0008101401AC1B22046FFF74AFD28B1A16B77
:10B300000A001CBFBDE81040084710BD704700B5DB
:10B3100081B090F8512212B9082001B000BD00227E
:10B3200080F8512200F24A200722FCF715F900208C
:10B3300001B000BD90F8531209B9082070470021F0
:10B3400080F8531200991143491E8941C943C90F1E
:10B3500080F854120020704730B5044681B094F84C
:10B36000540074DF012084F85202002084F8540253
:10B3700084F850000122B4F83812D4F8340200F0F6
:10B38000C9FB08B1062101704FF40D70211804F1BA
:10B390003C0204F1540072DF40B9A578207838B936
:10B3A0000820A16B0A0018BF8847002001B030BDFB
:10B3B000072104F24A20FEF733F8A07910B1A078F3
:10B3C000012806D0E07980B1A078012818BF0228B2
:10B3D0000BD1616B080005D0012084F851020820D0
:10B3E000884702E0002084F8510294F84B020028BC
:10B3F00004BF94F84C02002811D194F84D020028A3
:10B4000004BF94F84E02002809D194F84F0230B9D5
:10B4100094F85012481E8041C043C00F00E0012044
:10B420006D1E032D1AD8DFE805F0020C1115A17965
:10B4300039B194F8241080F00102114308BF0120B3
:10B440000DD0E179014218BF022008D1207A08B15D
:10B45000032004E0607A08B1042000E00020A0701E
:10B46000616B080011D0A078032818BF04280CD104
:10B47000607950B194F8520238B984F8540201202E
:10B4800084F853020720884702E0002084F8530222
:10B4900004F13C000021002200230EC00EC0012058
:10B4A00084F83C00E06A01281CBF0228012084F8CF
:10B4B000510094F82400010007D0E16A01291ABF65
:10B4C00002290121A16A84F8521084F85020A17841
:10B4D000042941D8DFE801F0039884560D0084F870
:10B4E0003120616B08003FF460AF94F83100884769
:10B4F0005BE7E1696164002814BF0620012084F83D
:10B500003C00216A6079A4F84810E8B194F852022E
:10B51000D0B994F85402B8B1022084F85000012246
:10B52000B4F83812D4F8340200F0F4FA08B1042167
:10B5300001704FF40D70211804F13C0204F1540025
:10B5400072DF48B9062000E0042084F831004FF48F
:10B550000D702044C4F84402A0780028C1D0D4F86B
:10B56000441204F13C0204F1540072DF30B994F843
:10B57000301094F8540073DF0028B2D000287FF414
:10B5800010AF12E761696164002814BF0620012032
:10B5900084F83C00A1696079A4F84810F0B194F8EF
:10B5A0005202D8B994F85402C0B1022084F8500075
:10B5B0000122B4F83812D4F8340200F0ABFA08B122
:10B5C000042101704FF40D70211804F13C0204F1C4
:10B5D000540072DF0028BFD10520B6E70320B4E78E
:10B5E0000221002814BF0720032084F83C0084F8BF
:10B5F0003110C4F844222069A4F8480004F24A201B
:10B600002064E0686064AAE7012084F83100C4F88F
:10B61000442204F24A2020646264022084F83C0040
:10B620008020A4F848009AE770B4054681B02878D5
:10B630000C46012802BF69780029072048D01188EC
:10B640008E1CB34230D3012804D168780818801CBE
:10B65000834229D3581A831EADF8003069461088FA
:10B660002044801C7DDF98BB2978022904D06878AB
:10B67000BDF80060B04206D3BDF8006098B2B04299
:10B6800028BF09200CD20820012907D16E7899B271
:10B69000B14288BF3146ADF8001001E0ADF800308E
:10B6A000BDF80010FF2903D301B070BC0C20704717
:10B6B0001388491CE1541188491C118089B26054D7
:10B6C0001088401C1080BDF8001008181080002061
:10B6D00001B070BC70472DE9F04782B04FF0000E0A
:10B6E0000A9E0B9C3788054688469146F24606E03E
:10B6F00030889DF80010401830800AF1010A28882F
:10B7000082452FDA686850F82A00019000226946C5
:10B7100001A864DFA8BB9DF800004845EDD1BEF14B
:10B72000000F31889DF8002014BF0020022052181D
:10B73000101884421FDBBEF1000F09D1481C308075
:10B740004FF0010E80B203F800803088401C30803A
:10B75000694630881A1801A864DF0028C8D002B0F2
:10B76000BDE8F087BEF1000F0AD03088C01B401E34
:10B7700080B2FF2803DD0C2002B0BDE8F087D85569
:10B78000002002B0BDE8F087F0B41488A51DAB42DC
:10B7900038BF0C2014D30388062B10DB40F68146FB
:10B7A000B34203DB4FF6FF77BB4208D14788062F31
:10B7B00005DBB7424FF6FF7504DBAF4206D007202A
:10B7C000F0BC7047AB4201D09F42F8D305230B5524
:10B7D000122413885B1C13809BB2CC5413885B1C0F
:10B7E00013809BB20B4404881C70240A5C7013887D
:10B7F0009B1C13809BB2194440880870000A487053
:10B800001088801C10800020F0BC70472DE9F041AA
:10B8100004468846A06A1646C8B3002708E080B2EE
:10B820004044FBF799FE3088A988081830807F1CB7
:10B83000F8B294F82C1088422CD2A06AFFB207EB21
:10B84000470100EB8105A888801CFF2802D30C204B
:10B85000BDE8F0813188401C08F8010016213088CD
:10B86000401C308080B208F800103088401C3080C6
:10B8700080B2404429880170090A41703088801CD8
:10B880003080AA881100D2D0A9680029C7D107202A
:10B89000BDE8F0810020BDE8F0812DE9F0431746B6
:10B8A00083B0B7F80080054600243C800E4695F82A
:10B8B0002D0040B3B8F1090FC0F0278168466DDF55
:10B8C000002840F01D813988082070541B213888D9
:10B8D000401C3880062280B231540DF101013888B5
:10B8E000401C388080B23044FBF736FE3888801D1B
:10B8F000388080B29DF80010490818BF01213154EA
:10B900003888401C3880A878F8B13888001D8045F8
:10B91000C0F0FB80684679DF002840F0F18039886C
:10B920000320705419213888401C388080B231546B
:10B930003888401C388080B23044BDF80010017057
:10B94000090A41703888801C3880E878010015D0D9
:10B950003988CA1C904540B2C0F0D7800222725488
:10B9600001223988491C398089B272543988491CAE
:10B97000398089B270543888401C38806868A8B112
:10B9800039880057CA1C9045C0F0BF80022272540B
:10B990000A223988491C398089B272543988491C75
:10B9A000398089B270543888401C38802889D0B1D9
:10B9B000CDF80480009733460222022105F10800E9
:10B9C000FFF789FE040040F09C80CDF804800097CA
:10B9D00033461022062105F10800FFF77CFE040023
:10B9E00040F08F800024288AC8B1CDF804800097E9
:10B9F00033460222032105F11000FFF76CFE04001C
:10BA000040F07F80CDF80480009733461022072154
:10BA100005F11000FFF75FFE040072D10024288BAF
:10BA2000C0B1CDF80480009733460222142105F1FD
:10BA30001800FFF750FE040063D1CDF80480009792
:10BA400033461022152105F11800FFF744FE0400CB
:10BA500057D10024286A30B143463A463146FFF7B1
:10BA600093FE04004DD1D5F82490B9F1000F34D0E5
:10BA7000B9F804003988801C4218921C904544D3C0
:10BA8000FF2842D2401C7054FF213888401C388067
:10BA900080B231543888401C388080B23044B9F8C4
:10BAA00000100170090A41703888801C3880B9F88C
:10BAB0000420110010D0D9F8081021B9072420461D
:10BAC00003B0BDE8F08380B23044FBF745FD388811
:10BAD000B9F8041008183880002495F82C0038B103
